{
	"contracts/1StucentRecords.sol": {
		"StudentRecord": {
			"abi": [
				{
					"inputs": [],
					"stateMutability": "nonpayable",
					"type": "constructor"
				},
				{
					"inputs": [
						{
							"internalType": "uint256",
							"name": "_roll",
							"type": "uint256"
						},
						{
							"internalType": "string",
							"name": "_name",
							"type": "string"
						},
						{
							"internalType": "uint256[3]",
							"name": "_marks",
							"type": "uint256[3]"
						}
					],
					"name": "addRecord",
					"outputs": [],
					"stateMutability": "nonpayable",
					"type": "function"
				},
				{
					"inputs": [
						{
							"internalType": "uint256",
							"name": "_roll",
							"type": "uint256"
						}
					],
					"name": "deleteRecord",
					"outputs": [],
					"stateMutability": "nonpayable",
					"type": "function"
				},
				{
					"inputs": [
						{
							"internalType": "uint256",
							"name": "_roll",
							"type": "uint256"
						}
					],
					"name": "getRecord",
					"outputs": [
						{
							"internalType": "uint256",
							"name": "",
							"type": "uint256"
						},
						{
							"internalType": "string",
							"name": "",
							"type": "string"
						},
						{
							"internalType": "uint256[3]",
							"name": "",
							"type": "uint256[3]"
						}
					],
					"stateMutability": "view",
					"type": "function"
				},
				{
					"inputs": [
						{
							"internalType": "uint256",
							"name": "",
							"type": "uint256"
						}
					],
					"name": "students",
					"outputs": [
						{
							"internalType": "uint256",
							"name": "roll",
							"type": "uint256"
						},
						{
							"internalType": "string",
							"name": "name",
							"type": "string"
						}
					],
					"stateMutability": "view",
					"type": "function"
				},
				{
					"inputs": [],
					"name": "teacher",
					"outputs": [
						{
							"internalType": "address",
							"name": "",
							"type": "address"
						}
					],
					"stateMutability": "view",
					"type": "function"
				}
			],
			"devdoc": {
				"kind": "dev",
				"methods": {},
				"version": 1
			},
			"evm": {
				"assembly": "    /* \"contracts/1StucentRecords.sol\":899:1921  contract StudentRecord{... */\n  mstore(0x40, 0x80)\n    /* \"contracts/1StucentRecords.sol\":1100:1152  constructor(){... */\n  callvalue\n  dup1\n  iszero\n  tag_1\n  jumpi\n  0x00\n  dup1\n  revert\ntag_1:\n  pop\n    /* \"contracts/1StucentRecords.sol\":1134:1144  msg.sender */\n  caller\n    /* \"contracts/1StucentRecords.sol\":1124:1131  teacher */\n  0x00\n  dup1\n    /* \"contracts/1StucentRecords.sol\":1124:1144  teacher = msg.sender */\n  0x0100\n  exp\n  dup2\n  sload\n  dup2\n  0xffffffffffffffffffffffffffffffffffffffff\n  mul\n  not\n  and\n  swap1\n  dup4\n  0xffffffffffffffffffffffffffffffffffffffff\n  and\n  mul\n  or\n  swap1\n  sstore\n  pop\n    /* \"contracts/1StucentRecords.sol\":899:1921  contract StudentRecord{... */\n  dataSize(sub_0)\n  dup1\n  dataOffset(sub_0)\n  0x00\n  codecopy\n  0x00\n  return\nstop\n\nsub_0: assembly {\n        /* \"contracts/1StucentRecords.sol\":899:1921  contract StudentRecord{... */\n      mstore(0x40, 0x80)\n      callvalue\n      dup1\n      iszero\n      tag_1\n      jumpi\n      0x00\n      dup1\n      revert\n    tag_1:\n      pop\n      jumpi(tag_2, lt(calldatasize, 0x04))\n      shr(0xe0, calldataload(0x00))\n      dup1\n      0x03e9e609\n      eq\n      tag_3\n      jumpi\n      dup1\n      0x061f9811\n      eq\n      tag_4\n      jumpi\n      dup1\n      0x06ead22e\n      eq\n      tag_5\n      jumpi\n      dup1\n      0xafb869ed\n      eq\n      tag_6\n      jumpi\n      dup1\n      0xb46bff89\n      eq\n      tag_7\n      jumpi\n    tag_2:\n      0x00\n      dup1\n      revert\n        /* \"contracts/1StucentRecords.sol\":1473:1744  function getRecord(uint _roll) public view returns (uint, string memory, uint[3] memory){... */\n    tag_3:\n      tag_8\n      0x04\n      dup1\n      calldatasize\n      sub\n      dup2\n      add\n      swap1\n      tag_9\n      swap2\n      swap1\n      tag_10\n      jump\t// in\n    tag_9:\n      tag_11\n      jump\t// in\n    tag_8:\n      mload(0x40)\n      tag_12\n      swap4\n      swap3\n      swap2\n      swap1\n      tag_13\n      jump\t// in\n    tag_12:\n      mload(0x40)\n      dup1\n      swap2\n      sub\n      swap1\n      return\n        /* \"contracts/1StucentRecords.sol\":1752:1916  function deleteRecord(uint _roll) public onlyTeacher{... */\n    tag_4:\n      tag_14\n      0x04\n      dup1\n      calldatasize\n      sub\n      dup2\n      add\n      swap1\n      tag_15\n      swap2\n      swap1\n      tag_10\n      jump\t// in\n    tag_15:\n      tag_16\n      jump\t// in\n    tag_14:\n      stop\n        /* \"contracts/1StucentRecords.sol\":1051:1091  mapping(uint => Student) public students */\n    tag_5:\n      tag_17\n      0x04\n      dup1\n      calldatasize\n      sub\n      dup2\n      add\n      swap1\n      tag_18\n      swap2\n      swap1\n      tag_10\n      jump\t// in\n    tag_18:\n      tag_19\n      jump\t// in\n    tag_17:\n      mload(0x40)\n      tag_20\n      swap3\n      swap2\n      swap1\n      tag_21\n      jump\t// in\n    tag_20:\n      mload(0x40)\n      dup1\n      swap2\n      sub\n      swap1\n      return\n        /* \"contracts/1StucentRecords.sol\":1305:1465  function addRecord(uint _roll, string memory _name, uint[3] memory _marks) public onlyTeacher {... */\n    tag_6:\n      tag_22\n      0x04\n      dup1\n      calldatasize\n      sub\n      dup2\n      add\n      swap1\n      tag_23\n      swap2\n      swap1\n      tag_24\n      jump\t// in\n    tag_23:\n      tag_25\n      jump\t// in\n    tag_22:\n      stop\n        /* \"contracts/1StucentRecords.sol\":928:950  address public teacher */\n    tag_7:\n      tag_26\n      tag_27\n      jump\t// in\n    tag_26:\n      mload(0x40)\n      tag_28\n      swap2\n      swap1\n      tag_29\n      jump\t// in\n    tag_28:\n      mload(0x40)\n      dup1\n      swap2\n      sub\n      swap1\n      return\n        /* \"contracts/1StucentRecords.sol\":1473:1744  function getRecord(uint _roll) public view returns (uint, string memory, uint[3] memory){... */\n    tag_11:\n        /* \"contracts/1StucentRecords.sol\":1525:1529  uint */\n      0x00\n        /* \"contracts/1StucentRecords.sol\":1531:1544  string memory */\n      0x60\n        /* \"contracts/1StucentRecords.sol\":1546:1560  uint[3] memory */\n      tag_30\n      tag_31\n      jump\t// in\n    tag_30:\n        /* \"contracts/1StucentRecords.sol\":1572:1595  Student storage student */\n      0x00\n        /* \"contracts/1StucentRecords.sol\":1598:1606  students */\n      0x01\n        /* \"contracts/1StucentRecords.sol\":1598:1613  students[_roll] */\n      0x00\n        /* \"contracts/1StucentRecords.sol\":1607:1612  _roll */\n      dup7\n        /* \"contracts/1StucentRecords.sol\":1598:1613  students[_roll] */\n      dup2\n      mstore\n      0x20\n      add\n      swap1\n      dup2\n      mstore\n      0x20\n      add\n      0x00\n      keccak256\n        /* \"contracts/1StucentRecords.sol\":1572:1613  Student storage student = students[_roll] */\n      swap1\n      pop\n        /* \"contracts/1StucentRecords.sol\":1648:1649  0 */\n      0x00\n        /* \"contracts/1StucentRecords.sol\":1632:1639  student */\n      dup2\n        /* \"contracts/1StucentRecords.sol\":1632:1644  student.roll */\n      0x00\n      add\n      sload\n        /* \"contracts/1StucentRecords.sol\":1632:1649  student.roll != 0 */\n      sub\n        /* \"contracts/1StucentRecords.sol\":1624:1676  require(student.roll != 0 , \"Record does not exits\") */\n      tag_33\n      jumpi\n      mload(0x40)\n      0x08c379a000000000000000000000000000000000000000000000000000000000\n      dup2\n      mstore\n      0x04\n      add\n      tag_34\n      swap1\n      tag_35\n      jump\t// in\n    tag_34:\n      mload(0x40)\n      dup1\n      swap2\n      sub\n      swap1\n      revert\n    tag_33:\n        /* \"contracts/1StucentRecords.sol\":1694:1701  student */\n      dup1\n        /* \"contracts/1StucentRecords.sol\":1694:1706  student.roll */\n      0x00\n      add\n      sload\n        /* \"contracts/1StucentRecords.sol\":1708:1715  student */\n      dup2\n        /* \"contracts/1StucentRecords.sol\":1708:1720  student.name */\n      0x01\n      add\n        /* \"contracts/1StucentRecords.sol\":1722:1729  student */\n      dup3\n        /* \"contracts/1StucentRecords.sol\":1722:1735  student.marks */\n      0x02\n      add\n        /* \"contracts/1StucentRecords.sol\":1687:1736  return(student.roll, student.name, student.marks) */\n      dup2\n      dup1\n      sload\n      tag_36\n      swap1\n      tag_37\n      jump\t// in\n    tag_36:\n      dup1\n      0x1f\n      add\n      0x20\n      dup1\n      swap2\n      div\n      mul\n      0x20\n      add\n      mload(0x40)\n      swap1\n      dup2\n      add\n      0x40\n      mstore\n      dup1\n      swap3\n      swap2\n      swap1\n      dup2\n      dup2\n      mstore\n      0x20\n      add\n      dup3\n      dup1\n      sload\n      tag_38\n      swap1\n      tag_37\n      jump\t// in\n    tag_38:\n      dup1\n      iszero\n      tag_39\n      jumpi\n      dup1\n      0x1f\n      lt\n      tag_40\n      jumpi\n      0x0100\n      dup1\n      dup4\n      sload\n      div\n      mul\n      dup4\n      mstore\n      swap2\n      0x20\n      add\n      swap2\n      jump(tag_39)\n    tag_40:\n      dup3\n      add\n      swap2\n      swap1\n      0x00\n      mstore\n      keccak256(0x00, 0x20)\n      swap1\n    tag_41:\n      dup2\n      sload\n      dup2\n      mstore\n      swap1\n      0x01\n      add\n      swap1\n      0x20\n      add\n      dup1\n      dup4\n      gt\n      tag_41\n      jumpi\n      dup3\n      swap1\n      sub\n      0x1f\n      and\n      dup3\n      add\n      swap2\n    tag_39:\n      pop\n      pop\n      pop\n      pop\n      pop\n      swap2\n      pop\n      dup1\n      0x03\n      dup1\n      0x20\n      mul\n      mload(0x40)\n      swap1\n      dup2\n      add\n      0x40\n      mstore\n      dup1\n      swap3\n      swap2\n      swap1\n      dup3\n      0x03\n      dup1\n      iszero\n      tag_42\n      jumpi\n      0x20\n      mul\n      dup3\n      add\n      swap2\n    tag_43:\n      dup2\n      sload\n      dup2\n      mstore\n      0x20\n      add\n      swap1\n      0x01\n      add\n      swap1\n      dup1\n      dup4\n      gt\n      tag_43\n      jumpi\n    tag_42:\n      pop\n      pop\n      pop\n      pop\n      pop\n      swap1\n      pop\n      swap4\n      pop\n      swap4\n      pop\n      swap4\n      pop\n      pop\n        /* \"contracts/1StucentRecords.sol\":1473:1744  function getRecord(uint _roll) public view returns (uint, string memory, uint[3] memory){... */\n      swap2\n      swap4\n      swap1\n      swap3\n      pop\n      jump\t// out\n        /* \"contracts/1StucentRecords.sol\":1752:1916  function deleteRecord(uint _roll) public onlyTeacher{... */\n    tag_16:\n        /* \"contracts/1StucentRecords.sol\":1216:1223  teacher */\n      0x00\n      dup1\n      sload\n      swap1\n      0x0100\n      exp\n      swap1\n      div\n      0xffffffffffffffffffffffffffffffffffffffff\n      and\n        /* \"contracts/1StucentRecords.sol\":1202:1223  msg.sender == teacher */\n      0xffffffffffffffffffffffffffffffffffffffff\n      and\n        /* \"contracts/1StucentRecords.sol\":1202:1212  msg.sender */\n      caller\n        /* \"contracts/1StucentRecords.sol\":1202:1223  msg.sender == teacher */\n      0xffffffffffffffffffffffffffffffffffffffff\n      and\n      eq\n        /* \"contracts/1StucentRecords.sol\":1194:1271  require(msg.sender == teacher, \"Only the teacher can perform this operation\") */\n      tag_45\n      jumpi\n      mload(0x40)\n      0x08c379a000000000000000000000000000000000000000000000000000000000\n      dup2\n      mstore\n      0x04\n      add\n      tag_46\n      swap1\n      tag_47\n      jump\t// in\n    tag_46:\n      mload(0x40)\n      dup1\n      swap2\n      sub\n      swap1\n      revert\n    tag_45:\n        /* \"contracts/1StucentRecords.sol\":1847:1848  0 */\n      0x00\n        /* \"contracts/1StucentRecords.sol\":1823:1831  students */\n      0x01\n        /* \"contracts/1StucentRecords.sol\":1823:1838  students[_roll] */\n      0x00\n        /* \"contracts/1StucentRecords.sol\":1832:1837  _roll */\n      dup4\n        /* \"contracts/1StucentRecords.sol\":1823:1838  students[_roll] */\n      dup2\n      mstore\n      0x20\n      add\n      swap1\n      dup2\n      mstore\n      0x20\n      add\n      0x00\n      keccak256\n        /* \"contracts/1StucentRecords.sol\":1823:1843  students[_roll].roll */\n      0x00\n      add\n      sload\n        /* \"contracts/1StucentRecords.sol\":1823:1848  students[_roll].roll != 0 */\n      sub\n        /* \"contracts/1StucentRecords.sol\":1815:1875  require(students[_roll].roll != 0 , \"Record does not exist\") */\n      tag_49\n      jumpi\n      mload(0x40)\n      0x08c379a000000000000000000000000000000000000000000000000000000000\n      dup2\n      mstore\n      0x04\n      add\n      tag_50\n      swap1\n      tag_51\n      jump\t// in\n    tag_50:\n      mload(0x40)\n      dup1\n      swap2\n      sub\n      swap1\n      revert\n    tag_49:\n        /* \"contracts/1StucentRecords.sol\":1893:1901  students */\n      0x01\n        /* \"contracts/1StucentRecords.sol\":1893:1908  students[_roll] */\n      0x00\n        /* \"contracts/1StucentRecords.sol\":1902:1907  _roll */\n      dup3\n        /* \"contracts/1StucentRecords.sol\":1893:1908  students[_roll] */\n      dup2\n      mstore\n      0x20\n      add\n      swap1\n      dup2\n      mstore\n      0x20\n      add\n      0x00\n      keccak256\n      0x00\n        /* \"contracts/1StucentRecords.sol\":1886:1908  delete students[_roll] */\n      dup1\n      dup3\n      add\n      0x00\n      swap1\n      sstore\n      0x01\n      dup3\n      add\n      0x00\n      tag_52\n      swap2\n      swap1\n      tag_53\n      jump\t// in\n    tag_52:\n      0x02\n      dup3\n      add\n      0x00\n      tag_54\n      swap2\n      swap1\n      tag_55\n      jump\t// in\n    tag_54:\n      pop\n      pop\n        /* \"contracts/1StucentRecords.sol\":1752:1916  function deleteRecord(uint _roll) public onlyTeacher{... */\n      pop\n      jump\t// out\n        /* \"contracts/1StucentRecords.sol\":1051:1091  mapping(uint => Student) public students */\n    tag_19:\n      mstore(0x20, 0x01)\n      dup1\n      0x00\n      mstore\n      keccak256(0x00, 0x40)\n      0x00\n      swap2\n      pop\n      swap1\n      pop\n      dup1\n      0x00\n      add\n      sload\n      swap1\n      dup1\n      0x01\n      add\n      dup1\n      sload\n      tag_56\n      swap1\n      tag_37\n      jump\t// in\n    tag_56:\n      dup1\n      0x1f\n      add\n      0x20\n      dup1\n      swap2\n      div\n      mul\n      0x20\n      add\n      mload(0x40)\n      swap1\n      dup2\n      add\n      0x40\n      mstore\n      dup1\n      swap3\n      swap2\n      swap1\n      dup2\n      dup2\n      mstore\n      0x20\n      add\n      dup3\n      dup1\n      sload\n      tag_57\n      swap1\n      tag_37\n      jump\t// in\n    tag_57:\n      dup1\n      iszero\n      tag_58\n      jumpi\n      dup1\n      0x1f\n      lt\n      tag_59\n      jumpi\n      0x0100\n      dup1\n      dup4\n      sload\n      div\n      mul\n      dup4\n      mstore\n      swap2\n      0x20\n      add\n      swap2\n      jump(tag_58)\n    tag_59:\n      dup3\n      add\n      swap2\n      swap1\n      0x00\n      mstore\n      keccak256(0x00, 0x20)\n      swap1\n    tag_60:\n      dup2\n      sload\n      dup2\n      mstore\n      swap1\n      0x01\n      add\n      swap1\n      0x20\n      add\n      dup1\n      dup4\n      gt\n      tag_60\n      jumpi\n      dup3\n      swap1\n      sub\n      0x1f\n      and\n      dup3\n      add\n      swap2\n    tag_58:\n      pop\n      pop\n      pop\n      pop\n      pop\n      swap1\n      pop\n      dup3\n      jump\t// out\n        /* \"contracts/1StucentRecords.sol\":1305:1465  function addRecord(uint _roll, string memory _name, uint[3] memory _marks) public onlyTeacher {... */\n    tag_25:\n        /* \"contracts/1StucentRecords.sol\":1216:1223  teacher */\n      0x00\n      dup1\n      sload\n      swap1\n      0x0100\n      exp\n      swap1\n      div\n      0xffffffffffffffffffffffffffffffffffffffff\n      and\n        /* \"contracts/1StucentRecords.sol\":1202:1223  msg.sender == teacher */\n      0xffffffffffffffffffffffffffffffffffffffff\n      and\n        /* \"contracts/1StucentRecords.sol\":1202:1212  msg.sender */\n      caller\n        /* \"contracts/1StucentRecords.sol\":1202:1223  msg.sender == teacher */\n      0xffffffffffffffffffffffffffffffffffffffff\n      and\n      eq\n        /* \"contracts/1StucentRecords.sol\":1194:1271  require(msg.sender == teacher, \"Only the teacher can perform this operation\") */\n      tag_62\n      jumpi\n      mload(0x40)\n      0x08c379a000000000000000000000000000000000000000000000000000000000\n      dup2\n      mstore\n      0x04\n      add\n      tag_63\n      swap1\n      tag_47\n      jump\t// in\n    tag_63:\n      mload(0x40)\n      dup1\n      swap2\n      sub\n      swap1\n      revert\n    tag_62:\n        /* \"contracts/1StucentRecords.sol\":1428:1457  Student(_roll, _name, _marks) */\n      mload(0x40)\n      dup1\n      0x60\n      add\n      0x40\n      mstore\n      dup1\n        /* \"contracts/1StucentRecords.sol\":1436:1441  _roll */\n      dup5\n        /* \"contracts/1StucentRecords.sol\":1428:1457  Student(_roll, _name, _marks) */\n      dup2\n      mstore\n      0x20\n      add\n        /* \"contracts/1StucentRecords.sol\":1443:1448  _name */\n      dup4\n        /* \"contracts/1StucentRecords.sol\":1428:1457  Student(_roll, _name, _marks) */\n      dup2\n      mstore\n      0x20\n      add\n        /* \"contracts/1StucentRecords.sol\":1450:1456  _marks */\n      dup3\n        /* \"contracts/1StucentRecords.sol\":1428:1457  Student(_roll, _name, _marks) */\n      dup2\n      mstore\n      pop\n        /* \"contracts/1StucentRecords.sol\":1410:1418  students */\n      0x01\n        /* \"contracts/1StucentRecords.sol\":1410:1425  students[_roll] */\n      0x00\n        /* \"contracts/1StucentRecords.sol\":1419:1424  _roll */\n      dup6\n        /* \"contracts/1StucentRecords.sol\":1410:1425  students[_roll] */\n      dup2\n      mstore\n      0x20\n      add\n      swap1\n      dup2\n      mstore\n      0x20\n      add\n      0x00\n      keccak256\n        /* \"contracts/1StucentRecords.sol\":1410:1457  students[_roll] = Student(_roll, _name, _marks) */\n      0x00\n      dup3\n      add\n      mload\n      dup2\n      0x00\n      add\n      sstore\n      0x20\n      dup3\n      add\n      mload\n      dup2\n      0x01\n      add\n      swap1\n      dup2\n      tag_65\n      swap2\n      swap1\n      tag_66\n      jump\t// in\n    tag_65:\n      pop\n      0x40\n      dup3\n      add\n      mload\n      dup2\n      0x02\n      add\n      swap1\n      0x03\n      tag_67\n      swap3\n      swap2\n      swap1\n      tag_68\n      jump\t// in\n    tag_67:\n      pop\n      swap1\n      pop\n      pop\n        /* \"contracts/1StucentRecords.sol\":1305:1465  function addRecord(uint _roll, string memory _name, uint[3] memory _marks) public onlyTeacher {... */\n      pop\n      pop\n      pop\n      jump\t// out\n        /* \"contracts/1StucentRecords.sol\":928:950  address public teacher */\n    tag_27:\n      0x00\n      dup1\n      sload\n      swap1\n      0x0100\n      exp\n      swap1\n      div\n      0xffffffffffffffffffffffffffffffffffffffff\n      and\n      dup2\n      jump\t// out\n    tag_31:\n      mload(0x40)\n      dup1\n      0x60\n      add\n      0x40\n      mstore\n      dup1\n      0x03\n      swap1\n      0x20\n      dup3\n      mul\n      dup1\n      calldatasize\n      dup4\n      calldatacopy\n      dup1\n      dup3\n      add\n      swap2\n      pop\n      pop\n      swap1\n      pop\n      pop\n      swap1\n      jump\t// out\n    tag_53:\n      pop\n      dup1\n      sload\n      tag_69\n      swap1\n      tag_37\n      jump\t// in\n    tag_69:\n      0x00\n      dup3\n      sstore\n      dup1\n      0x1f\n      lt\n      tag_71\n      jumpi\n      pop\n      jump(tag_70)\n    tag_71:\n      0x1f\n      add\n      0x20\n      swap1\n      div\n      swap1\n      0x00\n      mstore\n      keccak256(0x00, 0x20)\n      swap1\n      dup2\n      add\n      swap1\n      tag_72\n      swap2\n      swap1\n      tag_73\n      jump\t// in\n    tag_72:\n    tag_70:\n      pop\n      jump\t// out\n    tag_55:\n      pop\n      0x00\n      dup2\n      sstore\n      0x01\n      add\n      0x00\n      dup2\n      sstore\n      0x01\n      add\n      0x00\n      swap1\n      sstore\n      jump\t// out\n    tag_68:\n      dup3\n      0x03\n      dup2\n      add\n      swap3\n      dup3\n      iszero\n      tag_74\n      jumpi\n      swap2\n      0x20\n      mul\n      dup3\n      add\n    tag_75:\n      dup3\n      dup2\n      gt\n      iszero\n      tag_76\n      jumpi\n      dup3\n      mload\n      dup3\n      sstore\n      swap2\n      0x20\n      add\n      swap2\n      swap1\n      0x01\n      add\n      swap1\n      jump(tag_75)\n    tag_76:\n    tag_74:\n      pop\n      swap1\n      pop\n      tag_77\n      swap2\n      swap1\n      tag_73\n      jump\t// in\n    tag_77:\n      pop\n      swap1\n      jump\t// out\n    tag_73:\n    tag_78:\n      dup1\n      dup3\n      gt\n      iszero\n      tag_79\n      jumpi\n      0x00\n      dup2\n      0x00\n      swap1\n      sstore\n      pop\n      0x01\n      add\n      jump(tag_78)\n    tag_79:\n      pop\n      swap1\n      jump\t// out\n        /* \"#utility.yul\":7:82   */\n    tag_80:\n        /* \"#utility.yul\":40:46   */\n      0x00\n        /* \"#utility.yul\":73:75   */\n      0x40\n        /* \"#utility.yul\":67:76   */\n      mload\n        /* \"#utility.yul\":57:76   */\n      swap1\n      pop\n        /* \"#utility.yul\":7:82   */\n      swap1\n      jump\t// out\n        /* \"#utility.yul\":88:205   */\n    tag_81:\n        /* \"#utility.yul\":197:198   */\n      0x00\n        /* \"#utility.yul\":194:195   */\n      dup1\n        /* \"#utility.yul\":187:199   */\n      revert\n        /* \"#utility.yul\":211:328   */\n    tag_82:\n        /* \"#utility.yul\":320:321   */\n      0x00\n        /* \"#utility.yul\":317:318   */\n      dup1\n        /* \"#utility.yul\":310:322   */\n      revert\n        /* \"#utility.yul\":334:411   */\n    tag_83:\n        /* \"#utility.yul\":371:378   */\n      0x00\n        /* \"#utility.yul\":400:405   */\n      dup2\n        /* \"#utility.yul\":389:405   */\n      swap1\n      pop\n        /* \"#utility.yul\":334:411   */\n      swap2\n      swap1\n      pop\n      jump\t// out\n        /* \"#utility.yul\":417:539   */\n    tag_84:\n        /* \"#utility.yul\":490:514   */\n      tag_143\n        /* \"#utility.yul\":508:513   */\n      dup2\n        /* \"#utility.yul\":490:514   */\n      tag_83\n      jump\t// in\n    tag_143:\n        /* \"#utility.yul\":483:488   */\n      dup2\n        /* \"#utility.yul\":480:515   */\n      eq\n        /* \"#utility.yul\":470:533   */\n      tag_144\n      jumpi\n        /* \"#utility.yul\":529:530   */\n      0x00\n        /* \"#utility.yul\":526:527   */\n      dup1\n        /* \"#utility.yul\":519:531   */\n      revert\n        /* \"#utility.yul\":470:533   */\n    tag_144:\n        /* \"#utility.yul\":417:539   */\n      pop\n      jump\t// out\n        /* \"#utility.yul\":545:684   */\n    tag_85:\n        /* \"#utility.yul\":591:596   */\n      0x00\n        /* \"#utility.yul\":629:635   */\n      dup2\n        /* \"#utility.yul\":616:636   */\n      calldataload\n        /* \"#utility.yul\":607:636   */\n      swap1\n      pop\n        /* \"#utility.yul\":645:678   */\n      tag_146\n        /* \"#utility.yul\":672:677   */\n      dup2\n        /* \"#utility.yul\":645:678   */\n      tag_84\n      jump\t// in\n    tag_146:\n        /* \"#utility.yul\":545:684   */\n      swap3\n      swap2\n      pop\n      pop\n      jump\t// out\n        /* \"#utility.yul\":690:1019   */\n    tag_10:\n        /* \"#utility.yul\":749:755   */\n      0x00\n        /* \"#utility.yul\":798:800   */\n      0x20\n        /* \"#utility.yul\":786:795   */\n      dup3\n        /* \"#utility.yul\":777:784   */\n      dup5\n        /* \"#utility.yul\":773:796   */\n      sub\n        /* \"#utility.yul\":769:801   */\n      slt\n        /* \"#utility.yul\":766:885   */\n      iszero\n      tag_148\n      jumpi\n        /* \"#utility.yul\":804:883   */\n      tag_149\n      tag_81\n      jump\t// in\n    tag_149:\n        /* \"#utility.yul\":766:885   */\n    tag_148:\n        /* \"#utility.yul\":924:925   */\n      0x00\n        /* \"#utility.yul\":949:1002   */\n      tag_150\n        /* \"#utility.yul\":994:1001   */\n      dup5\n        /* \"#utility.yul\":985:991   */\n      dup3\n        /* \"#utility.yul\":974:983   */\n      dup6\n        /* \"#utility.yul\":970:992   */\n      add\n        /* \"#utility.yul\":949:1002   */\n      tag_85\n      jump\t// in\n    tag_150:\n        /* \"#utility.yul\":939:1002   */\n      swap2\n      pop\n        /* \"#utility.yul\":895:1012   */\n      pop\n        /* \"#utility.yul\":690:1019   */\n      swap3\n      swap2\n      pop\n      pop\n      jump\t// out\n        /* \"#utility.yul\":1025:1143   */\n    tag_86:\n        /* \"#utility.yul\":1112:1136   */\n      tag_152\n        /* \"#utility.yul\":1130:1135   */\n      dup2\n        /* \"#utility.yul\":1112:1136   */\n      tag_83\n      jump\t// in\n    tag_152:\n        /* \"#utility.yul\":1107:1110   */\n      dup3\n        /* \"#utility.yul\":1100:1137   */\n      mstore\n        /* \"#utility.yul\":1025:1143   */\n      pop\n      pop\n      jump\t// out\n        /* \"#utility.yul\":1149:1248   */\n    tag_87:\n        /* \"#utility.yul\":1201:1207   */\n      0x00\n        /* \"#utility.yul\":1235:1240   */\n      dup2\n        /* \"#utility.yul\":1229:1241   */\n      mload\n        /* \"#utility.yul\":1219:1241   */\n      swap1\n      pop\n        /* \"#utility.yul\":1149:1248   */\n      swap2\n      swap1\n      pop\n      jump\t// out\n        /* \"#utility.yul\":1254:1423   */\n    tag_88:\n        /* \"#utility.yul\":1338:1349   */\n      0x00\n        /* \"#utility.yul\":1372:1378   */\n      dup3\n        /* \"#utility.yul\":1367:1370   */\n      dup3\n        /* \"#utility.yul\":1360:1379   */\n      mstore\n        /* \"#utility.yul\":1412:1416   */\n      0x20\n        /* \"#utility.yul\":1407:1410   */\n      dup3\n        /* \"#utility.yul\":1403:1417   */\n      add\n        /* \"#utility.yul\":1388:1417   */\n      swap1\n      pop\n        /* \"#utility.yul\":1254:1423   */\n      swap3\n      swap2\n      pop\n      pop\n      jump\t// out\n        /* \"#utility.yul\":1429:1675   */\n    tag_89:\n        /* \"#utility.yul\":1510:1511   */\n      0x00\n        /* \"#utility.yul\":1520:1633   */\n    tag_156:\n        /* \"#utility.yul\":1534:1540   */\n      dup4\n        /* \"#utility.yul\":1531:1532   */\n      dup2\n        /* \"#utility.yul\":1528:1541   */\n      lt\n        /* \"#utility.yul\":1520:1633   */\n      iszero\n      tag_158\n      jumpi\n        /* \"#utility.yul\":1619:1620   */\n      dup1\n        /* \"#utility.yul\":1614:1617   */\n      dup3\n        /* \"#utility.yul\":1610:1621   */\n      add\n        /* \"#utility.yul\":1604:1622   */\n      mload\n        /* \"#utility.yul\":1600:1601   */\n      dup2\n        /* \"#utility.yul\":1595:1598   */\n      dup5\n        /* \"#utility.yul\":1591:1602   */\n      add\n        /* \"#utility.yul\":1584:1623   */\n      mstore\n        /* \"#utility.yul\":1556:1558   */\n      0x20\n        /* \"#utility.yul\":1553:1554   */\n      dup2\n        /* \"#utility.yul\":1549:1559   */\n      add\n        /* \"#utility.yul\":1544:1559   */\n      swap1\n      pop\n        /* \"#utility.yul\":1520:1633   */\n      jump(tag_156)\n    tag_158:\n        /* \"#utility.yul\":1667:1668   */\n      0x00\n        /* \"#utility.yul\":1658:1664   */\n      dup5\n        /* \"#utility.yul\":1653:1656   */\n      dup5\n        /* \"#utility.yul\":1649:1665   */\n      add\n        /* \"#utility.yul\":1642:1669   */\n      mstore\n        /* \"#utility.yul\":1491:1675   */\n      pop\n        /* \"#utility.yul\":1429:1675   */\n      pop\n      pop\n      pop\n      jump\t// out\n        /* \"#utility.yul\":1681:1783   */\n    tag_90:\n        /* \"#utility.yul\":1722:1728   */\n      0x00\n        /* \"#utility.yul\":1773:1775   */\n      0x1f\n        /* \"#utility.yul\":1769:1776   */\n      not\n        /* \"#utility.yul\":1764:1766   */\n      0x1f\n        /* \"#utility.yul\":1757:1762   */\n      dup4\n        /* \"#utility.yul\":1753:1767   */\n      add\n        /* \"#utility.yul\":1749:1777   */\n      and\n        /* \"#utility.yul\":1739:1777   */\n      swap1\n      pop\n        /* \"#utility.yul\":1681:1783   */\n      swap2\n      swap1\n      pop\n      jump\t// out\n        /* \"#utility.yul\":1789:2166   */\n    tag_91:\n        /* \"#utility.yul\":1877:1880   */\n      0x00\n        /* \"#utility.yul\":1905:1944   */\n      tag_161\n        /* \"#utility.yul\":1938:1943   */\n      dup3\n        /* \"#utility.yul\":1905:1944   */\n      tag_87\n      jump\t// in\n    tag_161:\n        /* \"#utility.yul\":1960:2031   */\n      tag_162\n        /* \"#utility.yul\":2024:2030   */\n      dup2\n        /* \"#utility.yul\":2019:2022   */\n      dup6\n        /* \"#utility.yul\":1960:2031   */\n      tag_88\n      jump\t// in\n    tag_162:\n        /* \"#utility.yul\":1953:2031   */\n      swap4\n      pop\n        /* \"#utility.yul\":2040:2105   */\n      tag_163\n        /* \"#utility.yul\":2098:2104   */\n      dup2\n        /* \"#utility.yul\":2093:2096   */\n      dup6\n        /* \"#utility.yul\":2086:2090   */\n      0x20\n        /* \"#utility.yul\":2079:2084   */\n      dup7\n        /* \"#utility.yul\":2075:2091   */\n      add\n        /* \"#utility.yul\":2040:2105   */\n      tag_89\n      jump\t// in\n    tag_163:\n        /* \"#utility.yul\":2130:2159   */\n      tag_164\n        /* \"#utility.yul\":2152:2158   */\n      dup2\n        /* \"#utility.yul\":2130:2159   */\n      tag_90\n      jump\t// in\n    tag_164:\n        /* \"#utility.yul\":2125:2128   */\n      dup5\n        /* \"#utility.yul\":2121:2160   */\n      add\n        /* \"#utility.yul\":2114:2160   */\n      swap2\n      pop\n        /* \"#utility.yul\":1881:2166   */\n      pop\n        /* \"#utility.yul\":1789:2166   */\n      swap3\n      swap2\n      pop\n      pop\n      jump\t// out\n        /* \"#utility.yul\":2172:2276   */\n    tag_92:\n        /* \"#utility.yul\":2237:2243   */\n      0x00\n        /* \"#utility.yul\":2265:2269   */\n      0x03\n        /* \"#utility.yul\":2255:2269   */\n      swap1\n      pop\n        /* \"#utility.yul\":2172:2276   */\n      swap2\n      swap1\n      pop\n      jump\t// out\n        /* \"#utility.yul\":2282:2425   */\n    tag_93:\n        /* \"#utility.yul\":2379:2390   */\n      0x00\n        /* \"#utility.yul\":2416:2419   */\n      dup2\n        /* \"#utility.yul\":2401:2419   */\n      swap1\n      pop\n        /* \"#utility.yul\":2282:2425   */\n      swap3\n      swap2\n      pop\n      pop\n      jump\t// out\n        /* \"#utility.yul\":2431:2529   */\n    tag_94:\n        /* \"#utility.yul\":2496:2500   */\n      0x00\n        /* \"#utility.yul\":2519:2522   */\n      dup2\n        /* \"#utility.yul\":2511:2522   */\n      swap1\n      pop\n        /* \"#utility.yul\":2431:2529   */\n      swap2\n      swap1\n      pop\n      jump\t// out\n        /* \"#utility.yul\":2535:2643   */\n    tag_95:\n        /* \"#utility.yul\":2612:2636   */\n      tag_169\n        /* \"#utility.yul\":2630:2635   */\n      dup2\n        /* \"#utility.yul\":2612:2636   */\n      tag_83\n      jump\t// in\n    tag_169:\n        /* \"#utility.yul\":2607:2610   */\n      dup3\n        /* \"#utility.yul\":2600:2637   */\n      mstore\n        /* \"#utility.yul\":2535:2643   */\n      pop\n      pop\n      jump\t// out\n        /* \"#utility.yul\":2649:2828   */\n    tag_96:\n        /* \"#utility.yul\":2718:2728   */\n      0x00\n        /* \"#utility.yul\":2739:2785   */\n      tag_171\n        /* \"#utility.yul\":2781:2784   */\n      dup4\n        /* \"#utility.yul\":2773:2779   */\n      dup4\n        /* \"#utility.yul\":2739:2785   */\n      tag_95\n      jump\t// in\n    tag_171:\n        /* \"#utility.yul\":2817:2821   */\n      0x20\n        /* \"#utility.yul\":2812:2815   */\n      dup4\n        /* \"#utility.yul\":2808:2822   */\n      add\n        /* \"#utility.yul\":2794:2822   */\n      swap1\n      pop\n        /* \"#utility.yul\":2649:2828   */\n      swap3\n      swap2\n      pop\n      pop\n      jump\t// out\n        /* \"#utility.yul\":2834:2945   */\n    tag_97:\n        /* \"#utility.yul\":2902:2906   */\n      0x00\n        /* \"#utility.yul\":2934:2938   */\n      0x20\n        /* \"#utility.yul\":2929:2932   */\n      dup3\n        /* \"#utility.yul\":2925:2939   */\n      add\n        /* \"#utility.yul\":2917:2939   */\n      swap1\n      pop\n        /* \"#utility.yul\":2834:2945   */\n      swap2\n      swap1\n      pop\n      jump\t// out\n        /* \"#utility.yul\":2983:3677   */\n    tag_98:\n        /* \"#utility.yul\":3119:3171   */\n      tag_174\n        /* \"#utility.yul\":3165:3170   */\n      dup2\n        /* \"#utility.yul\":3119:3171   */\n      tag_92\n      jump\t// in\n    tag_174:\n        /* \"#utility.yul\":3187:3271   */\n      tag_175\n        /* \"#utility.yul\":3264:3270   */\n      dup2\n        /* \"#utility.yul\":3259:3262   */\n      dup5\n        /* \"#utility.yul\":3187:3271   */\n      tag_93\n      jump\t// in\n    tag_175:\n        /* \"#utility.yul\":3180:3271   */\n      swap3\n      pop\n        /* \"#utility.yul\":3295:3349   */\n      tag_176\n        /* \"#utility.yul\":3343:3348   */\n      dup3\n        /* \"#utility.yul\":3295:3349   */\n      tag_94\n      jump\t// in\n    tag_176:\n        /* \"#utility.yul\":3372:3379   */\n      dup1\n        /* \"#utility.yul\":3403:3404   */\n      0x00\n        /* \"#utility.yul\":3388:3670   */\n    tag_177:\n        /* \"#utility.yul\":3413:3419   */\n      dup4\n        /* \"#utility.yul\":3410:3411   */\n      dup2\n        /* \"#utility.yul\":3407:3420   */\n      lt\n        /* \"#utility.yul\":3388:3670   */\n      iszero\n      tag_179\n      jumpi\n        /* \"#utility.yul\":3489:3495   */\n      dup2\n        /* \"#utility.yul\":3483:3496   */\n      mload\n        /* \"#utility.yul\":3516:3579   */\n      tag_180\n        /* \"#utility.yul\":3575:3578   */\n      dup8\n        /* \"#utility.yul\":3560:3573   */\n      dup3\n        /* \"#utility.yul\":3516:3579   */\n      tag_96\n      jump\t// in\n    tag_180:\n        /* \"#utility.yul\":3509:3579   */\n      swap7\n      pop\n        /* \"#utility.yul\":3602:3660   */\n      tag_181\n        /* \"#utility.yul\":3653:3659   */\n      dup4\n        /* \"#utility.yul\":3602:3660   */\n      tag_97\n      jump\t// in\n    tag_181:\n        /* \"#utility.yul\":3592:3660   */\n      swap3\n      pop\n        /* \"#utility.yul\":3448:3670   */\n      pop\n        /* \"#utility.yul\":3435:3436   */\n      0x01\n        /* \"#utility.yul\":3432:3433   */\n      dup2\n        /* \"#utility.yul\":3428:3437   */\n      add\n        /* \"#utility.yul\":3423:3437   */\n      swap1\n      pop\n        /* \"#utility.yul\":3388:3670   */\n      jump(tag_177)\n    tag_179:\n        /* \"#utility.yul\":3392:3406   */\n      pop\n        /* \"#utility.yul\":3095:3677   */\n      pop\n      pop\n      pop\n        /* \"#utility.yul\":2983:3677   */\n      pop\n      pop\n      jump\t// out\n        /* \"#utility.yul\":3683:4309   */\n    tag_13:\n        /* \"#utility.yul\":3898:3902   */\n      0x00\n        /* \"#utility.yul\":3936:3939   */\n      0xa0\n        /* \"#utility.yul\":3925:3934   */\n      dup3\n        /* \"#utility.yul\":3921:3940   */\n      add\n        /* \"#utility.yul\":3913:3940   */\n      swap1\n      pop\n        /* \"#utility.yul\":3950:4021   */\n      tag_183\n        /* \"#utility.yul\":4018:4019   */\n      0x00\n        /* \"#utility.yul\":4007:4016   */\n      dup4\n        /* \"#utility.yul\":4003:4020   */\n      add\n        /* \"#utility.yul\":3994:4000   */\n      dup7\n        /* \"#utility.yul\":3950:4021   */\n      tag_86\n      jump\t// in\n    tag_183:\n        /* \"#utility.yul\":4068:4077   */\n      dup2\n        /* \"#utility.yul\":4062:4066   */\n      dup2\n        /* \"#utility.yul\":4058:4078   */\n      sub\n        /* \"#utility.yul\":4053:4055   */\n      0x20\n        /* \"#utility.yul\":4042:4051   */\n      dup4\n        /* \"#utility.yul\":4038:4056   */\n      add\n        /* \"#utility.yul\":4031:4079   */\n      mstore\n        /* \"#utility.yul\":4096:4174   */\n      tag_184\n        /* \"#utility.yul\":4169:4173   */\n      dup2\n        /* \"#utility.yul\":4160:4166   */\n      dup6\n        /* \"#utility.yul\":4096:4174   */\n      tag_91\n      jump\t// in\n    tag_184:\n        /* \"#utility.yul\":4088:4174   */\n      swap1\n      pop\n        /* \"#utility.yul\":4184:4302   */\n      tag_185\n        /* \"#utility.yul\":4298:4300   */\n      0x40\n        /* \"#utility.yul\":4287:4296   */\n      dup4\n        /* \"#utility.yul\":4283:4301   */\n      add\n        /* \"#utility.yul\":4274:4280   */\n      dup5\n        /* \"#utility.yul\":4184:4302   */\n      tag_98\n      jump\t// in\n    tag_185:\n        /* \"#utility.yul\":3683:4309   */\n      swap5\n      swap4\n      pop\n      pop\n      pop\n      pop\n      jump\t// out\n        /* \"#utility.yul\":4315:4738   */\n    tag_21:\n        /* \"#utility.yul\":4456:4460   */\n      0x00\n        /* \"#utility.yul\":4494:4496   */\n      0x40\n        /* \"#utility.yul\":4483:4492   */\n      dup3\n        /* \"#utility.yul\":4479:4497   */\n      add\n        /* \"#utility.yul\":4471:4497   */\n      swap1\n      pop\n        /* \"#utility.yul\":4507:4578   */\n      tag_187\n        /* \"#utility.yul\":4575:4576   */\n      0x00\n        /* \"#utility.yul\":4564:4573   */\n      dup4\n        /* \"#utility.yul\":4560:4577   */\n      add\n        /* \"#utility.yul\":4551:4557   */\n      dup6\n        /* \"#utility.yul\":4507:4578   */\n      tag_86\n      jump\t// in\n    tag_187:\n        /* \"#utility.yul\":4625:4634   */\n      dup2\n        /* \"#utility.yul\":4619:4623   */\n      dup2\n        /* \"#utility.yul\":4615:4635   */\n      sub\n        /* \"#utility.yul\":4610:4612   */\n      0x20\n        /* \"#utility.yul\":4599:4608   */\n      dup4\n        /* \"#utility.yul\":4595:4613   */\n      add\n        /* \"#utility.yul\":4588:4636   */\n      mstore\n        /* \"#utility.yul\":4653:4731   */\n      tag_188\n        /* \"#utility.yul\":4726:4730   */\n      dup2\n        /* \"#utility.yul\":4717:4723   */\n      dup5\n        /* \"#utility.yul\":4653:4731   */\n      tag_91\n      jump\t// in\n    tag_188:\n        /* \"#utility.yul\":4645:4731   */\n      swap1\n      pop\n        /* \"#utility.yul\":4315:4738   */\n      swap4\n      swap3\n      pop\n      pop\n      pop\n      jump\t// out\n        /* \"#utility.yul\":4744:4861   */\n    tag_99:\n        /* \"#utility.yul\":4853:4854   */\n      0x00\n        /* \"#utility.yul\":4850:4851   */\n      dup1\n        /* \"#utility.yul\":4843:4855   */\n      revert\n        /* \"#utility.yul\":4867:4984   */\n    tag_100:\n        /* \"#utility.yul\":4976:4977   */\n      0x00\n        /* \"#utility.yul\":4973:4974   */\n      dup1\n        /* \"#utility.yul\":4966:4978   */\n      revert\n        /* \"#utility.yul\":4990:5170   */\n    tag_101:\n        /* \"#utility.yul\":5038:5115   */\n      0x4e487b7100000000000000000000000000000000000000000000000000000000\n        /* \"#utility.yul\":5035:5036   */\n      0x00\n        /* \"#utility.yul\":5028:5116   */\n      mstore\n        /* \"#utility.yul\":5135:5139   */\n      0x41\n        /* \"#utility.yul\":5132:5133   */\n      0x04\n        /* \"#utility.yul\":5125:5140   */\n      mstore\n        /* \"#utility.yul\":5159:5163   */\n      0x24\n        /* \"#utility.yul\":5156:5157   */\n      0x00\n        /* \"#utility.yul\":5149:5164   */\n      revert\n        /* \"#utility.yul\":5176:5457   */\n    tag_102:\n        /* \"#utility.yul\":5259:5286   */\n      tag_193\n        /* \"#utility.yul\":5281:5285   */\n      dup3\n        /* \"#utility.yul\":5259:5286   */\n      tag_90\n      jump\t// in\n    tag_193:\n        /* \"#utility.yul\":5251:5257   */\n      dup2\n        /* \"#utility.yul\":5247:5287   */\n      add\n        /* \"#utility.yul\":5389:5395   */\n      dup2\n        /* \"#utility.yul\":5377:5387   */\n      dup2\n        /* \"#utility.yul\":5374:5396   */\n      lt\n        /* \"#utility.yul\":5353:5371   */\n      0xffffffffffffffff\n        /* \"#utility.yul\":5341:5351   */\n      dup3\n        /* \"#utility.yul\":5338:5372   */\n      gt\n        /* \"#utility.yul\":5335:5397   */\n      or\n        /* \"#utility.yul\":5332:5420   */\n      iszero\n      tag_194\n      jumpi\n        /* \"#utility.yul\":5400:5418   */\n      tag_195\n      tag_101\n      jump\t// in\n    tag_195:\n        /* \"#utility.yul\":5332:5420   */\n    tag_194:\n        /* \"#utility.yul\":5440:5450   */\n      dup1\n        /* \"#utility.yul\":5436:5438   */\n      0x40\n        /* \"#utility.yul\":5429:5451   */\n      mstore\n        /* \"#utility.yul\":5219:5457   */\n      pop\n        /* \"#utility.yul\":5176:5457   */\n      pop\n      pop\n      jump\t// out\n        /* \"#utility.yul\":5463:5592   */\n    tag_103:\n        /* \"#utility.yul\":5497:5503   */\n      0x00\n        /* \"#utility.yul\":5524:5544   */\n      tag_197\n      tag_80\n      jump\t// in\n    tag_197:\n        /* \"#utility.yul\":5514:5544   */\n      swap1\n      pop\n        /* \"#utility.yul\":5553:5586   */\n      tag_198\n        /* \"#utility.yul\":5581:5585   */\n      dup3\n        /* \"#utility.yul\":5573:5579   */\n      dup3\n        /* \"#utility.yul\":5553:5586   */\n      tag_102\n      jump\t// in\n    tag_198:\n        /* \"#utility.yul\":5463:5592   */\n      swap2\n      swap1\n      pop\n      jump\t// out\n        /* \"#utility.yul\":5598:5906   */\n    tag_104:\n        /* \"#utility.yul\":5660:5664   */\n      0x00\n        /* \"#utility.yul\":5750:5768   */\n      0xffffffffffffffff\n        /* \"#utility.yul\":5742:5748   */\n      dup3\n        /* \"#utility.yul\":5739:5769   */\n      gt\n        /* \"#utility.yul\":5736:5792   */\n      iszero\n      tag_200\n      jumpi\n        /* \"#utility.yul\":5772:5790   */\n      tag_201\n      tag_101\n      jump\t// in\n    tag_201:\n        /* \"#utility.yul\":5736:5792   */\n    tag_200:\n        /* \"#utility.yul\":5810:5839   */\n      tag_202\n        /* \"#utility.yul\":5832:5838   */\n      dup3\n        /* \"#utility.yul\":5810:5839   */\n      tag_90\n      jump\t// in\n    tag_202:\n        /* \"#utility.yul\":5802:5839   */\n      swap1\n      pop\n        /* \"#utility.yul\":5894:5898   */\n      0x20\n        /* \"#utility.yul\":5888:5892   */\n      dup2\n        /* \"#utility.yul\":5884:5899   */\n      add\n        /* \"#utility.yul\":5876:5899   */\n      swap1\n      pop\n        /* \"#utility.yul\":5598:5906   */\n      swap2\n      swap1\n      pop\n      jump\t// out\n        /* \"#utility.yul\":5912:6058   */\n    tag_105:\n        /* \"#utility.yul\":6009:6015   */\n      dup3\n        /* \"#utility.yul\":6004:6007   */\n      dup2\n        /* \"#utility.yul\":5999:6002   */\n      dup4\n        /* \"#utility.yul\":5986:6016   */\n      calldatacopy\n        /* \"#utility.yul\":6050:6051   */\n      0x00\n        /* \"#utility.yul\":6041:6047   */\n      dup4\n        /* \"#utility.yul\":6036:6039   */\n      dup4\n        /* \"#utility.yul\":6032:6048   */\n      add\n        /* \"#utility.yul\":6025:6052   */\n      mstore\n        /* \"#utility.yul\":5912:6058   */\n      pop\n      pop\n      pop\n      jump\t// out\n        /* \"#utility.yul\":6064:6489   */\n    tag_106:\n        /* \"#utility.yul\":6142:6147   */\n      0x00\n        /* \"#utility.yul\":6167:6233   */\n      tag_205\n        /* \"#utility.yul\":6183:6232   */\n      tag_206\n        /* \"#utility.yul\":6225:6231   */\n      dup5\n        /* \"#utility.yul\":6183:6232   */\n      tag_104\n      jump\t// in\n    tag_206:\n        /* \"#utility.yul\":6167:6233   */\n      tag_103\n      jump\t// in\n    tag_205:\n        /* \"#utility.yul\":6158:6233   */\n      swap1\n      pop\n        /* \"#utility.yul\":6256:6262   */\n      dup3\n        /* \"#utility.yul\":6249:6254   */\n      dup2\n        /* \"#utility.yul\":6242:6263   */\n      mstore\n        /* \"#utility.yul\":6294:6298   */\n      0x20\n        /* \"#utility.yul\":6287:6292   */\n      dup2\n        /* \"#utility.yul\":6283:6299   */\n      add\n        /* \"#utility.yul\":6332:6335   */\n      dup5\n        /* \"#utility.yul\":6323:6329   */\n      dup5\n        /* \"#utility.yul\":6318:6321   */\n      dup5\n        /* \"#utility.yul\":6314:6330   */\n      add\n        /* \"#utility.yul\":6311:6336   */\n      gt\n        /* \"#utility.yul\":6308:6420   */\n      iszero\n      tag_207\n      jumpi\n        /* \"#utility.yul\":6339:6418   */\n      tag_208\n      tag_100\n      jump\t// in\n    tag_208:\n        /* \"#utility.yul\":6308:6420   */\n    tag_207:\n        /* \"#utility.yul\":6429:6483   */\n      tag_209\n        /* \"#utility.yul\":6476:6482   */\n      dup5\n        /* \"#utility.yul\":6471:6474   */\n      dup3\n        /* \"#utility.yul\":6466:6469   */\n      dup6\n        /* \"#utility.yul\":6429:6483   */\n      tag_105\n      jump\t// in\n    tag_209:\n        /* \"#utility.yul\":6148:6489   */\n      pop\n        /* \"#utility.yul\":6064:6489   */\n      swap4\n      swap3\n      pop\n      pop\n      pop\n      jump\t// out\n        /* \"#utility.yul\":6509:6849   */\n    tag_107:\n        /* \"#utility.yul\":6565:6570   */\n      0x00\n        /* \"#utility.yul\":6614:6617   */\n      dup3\n        /* \"#utility.yul\":6607:6611   */\n      0x1f\n        /* \"#utility.yul\":6599:6605   */\n      dup4\n        /* \"#utility.yul\":6595:6612   */\n      add\n        /* \"#utility.yul\":6591:6618   */\n      slt\n        /* \"#utility.yul\":6581:6703   */\n      tag_211\n      jumpi\n        /* \"#utility.yul\":6622:6701   */\n      tag_212\n      tag_99\n      jump\t// in\n    tag_212:\n        /* \"#utility.yul\":6581:6703   */\n    tag_211:\n        /* \"#utility.yul\":6739:6745   */\n      dup2\n        /* \"#utility.yul\":6726:6746   */\n      calldataload\n        /* \"#utility.yul\":6764:6843   */\n      tag_213\n        /* \"#utility.yul\":6839:6842   */\n      dup5\n        /* \"#utility.yul\":6831:6837   */\n      dup3\n        /* \"#utility.yul\":6824:6828   */\n      0x20\n        /* \"#utility.yul\":6816:6822   */\n      dup7\n        /* \"#utility.yul\":6812:6829   */\n      add\n        /* \"#utility.yul\":6764:6843   */\n      tag_106\n      jump\t// in\n    tag_213:\n        /* \"#utility.yul\":6755:6843   */\n      swap2\n      pop\n        /* \"#utility.yul\":6571:6849   */\n      pop\n        /* \"#utility.yul\":6509:6849   */\n      swap3\n      swap2\n      pop\n      pop\n      jump\t// out\n        /* \"#utility.yul\":6855:7104   */\n    tag_108:\n        /* \"#utility.yul\":6930:6934   */\n      0x00\n        /* \"#utility.yul\":7020:7038   */\n      0xffffffffffffffff\n        /* \"#utility.yul\":7012:7018   */\n      dup3\n        /* \"#utility.yul\":7009:7039   */\n      gt\n        /* \"#utility.yul\":7006:7062   */\n      iszero\n      tag_215\n      jumpi\n        /* \"#utility.yul\":7042:7060   */\n      tag_216\n      tag_101\n      jump\t// in\n    tag_216:\n        /* \"#utility.yul\":7006:7062   */\n    tag_215:\n        /* \"#utility.yul\":7092:7096   */\n      0x20\n        /* \"#utility.yul\":7084:7090   */\n      dup3\n        /* \"#utility.yul\":7080:7097   */\n      mul\n        /* \"#utility.yul\":7072:7097   */\n      swap1\n      pop\n        /* \"#utility.yul\":6855:7104   */\n      swap2\n      swap1\n      pop\n      jump\t// out\n        /* \"#utility.yul\":7110:7227   */\n    tag_109:\n        /* \"#utility.yul\":7219:7220   */\n      0x00\n        /* \"#utility.yul\":7216:7217   */\n      dup1\n        /* \"#utility.yul\":7209:7221   */\n      revert\n        /* \"#utility.yul\":7251:7894   */\n    tag_110:\n        /* \"#utility.yul\":7345:7350   */\n      0x00\n        /* \"#utility.yul\":7370:7449   */\n      tag_219\n        /* \"#utility.yul\":7386:7448   */\n      tag_220\n        /* \"#utility.yul\":7441:7447   */\n      dup5\n        /* \"#utility.yul\":7386:7448   */\n      tag_108\n      jump\t// in\n    tag_220:\n        /* \"#utility.yul\":7370:7449   */\n      tag_103\n      jump\t// in\n    tag_219:\n        /* \"#utility.yul\":7361:7449   */\n      swap1\n      pop\n        /* \"#utility.yul\":7469:7474   */\n      dup1\n        /* \"#utility.yul\":7522:7526   */\n      0x20\n        /* \"#utility.yul\":7514:7520   */\n      dup5\n        /* \"#utility.yul\":7510:7527   */\n      mul\n        /* \"#utility.yul\":7502:7508   */\n      dup4\n        /* \"#utility.yul\":7498:7528   */\n      add\n        /* \"#utility.yul\":7551:7554   */\n      dup6\n        /* \"#utility.yul\":7543:7549   */\n      dup2\n        /* \"#utility.yul\":7540:7555   */\n      gt\n        /* \"#utility.yul\":7537:7659   */\n      iszero\n      tag_221\n      jumpi\n        /* \"#utility.yul\":7570:7649   */\n      tag_222\n      tag_109\n      jump\t// in\n    tag_222:\n        /* \"#utility.yul\":7537:7659   */\n    tag_221:\n        /* \"#utility.yul\":7685:7691   */\n      dup4\n        /* \"#utility.yul\":7668:7888   */\n    tag_223:\n        /* \"#utility.yul\":7702:7708   */\n      dup2\n        /* \"#utility.yul\":7697:7700   */\n      dup2\n        /* \"#utility.yul\":7694:7709   */\n      lt\n        /* \"#utility.yul\":7668:7888   */\n      iszero\n      tag_225\n      jumpi\n        /* \"#utility.yul\":7777:7780   */\n      dup1\n        /* \"#utility.yul\":7806:7843   */\n      tag_226\n        /* \"#utility.yul\":7839:7842   */\n      dup9\n        /* \"#utility.yul\":7827:7837   */\n      dup3\n        /* \"#utility.yul\":7806:7843   */\n      tag_85\n      jump\t// in\n    tag_226:\n        /* \"#utility.yul\":7801:7804   */\n      dup5\n        /* \"#utility.yul\":7794:7844   */\n      mstore\n        /* \"#utility.yul\":7873:7877   */\n      0x20\n        /* \"#utility.yul\":7868:7871   */\n      dup5\n        /* \"#utility.yul\":7864:7878   */\n      add\n        /* \"#utility.yul\":7857:7878   */\n      swap4\n      pop\n        /* \"#utility.yul\":7744:7888   */\n      pop\n        /* \"#utility.yul\":7728:7732   */\n      0x20\n        /* \"#utility.yul\":7723:7726   */\n      dup2\n        /* \"#utility.yul\":7719:7733   */\n      add\n        /* \"#utility.yul\":7712:7733   */\n      swap1\n      pop\n        /* \"#utility.yul\":7668:7888   */\n      jump(tag_223)\n    tag_225:\n        /* \"#utility.yul\":7672:7693   */\n      pop\n        /* \"#utility.yul\":7351:7894   */\n      pop\n      pop\n        /* \"#utility.yul\":7251:7894   */\n      swap4\n      swap3\n      pop\n      pop\n      pop\n      jump\t// out\n        /* \"#utility.yul\":7918:8257   */\n    tag_111:\n        /* \"#utility.yul\":7987:7992   */\n      0x00\n        /* \"#utility.yul\":8036:8039   */\n      dup3\n        /* \"#utility.yul\":8029:8033   */\n      0x1f\n        /* \"#utility.yul\":8021:8027   */\n      dup4\n        /* \"#utility.yul\":8017:8034   */\n      add\n        /* \"#utility.yul\":8013:8040   */\n      slt\n        /* \"#utility.yul\":8003:8125   */\n      tag_228\n      jumpi\n        /* \"#utility.yul\":8044:8123   */\n      tag_229\n      tag_99\n      jump\t// in\n    tag_229:\n        /* \"#utility.yul\":8003:8125   */\n    tag_228:\n        /* \"#utility.yul\":8148:8152   */\n      0x03\n        /* \"#utility.yul\":8170:8251   */\n      tag_230\n        /* \"#utility.yul\":8247:8250   */\n      dup5\n        /* \"#utility.yul\":8239:8245   */\n      dup3\n        /* \"#utility.yul\":8231:8237   */\n      dup6\n        /* \"#utility.yul\":8170:8251   */\n      tag_110\n      jump\t// in\n    tag_230:\n        /* \"#utility.yul\":8161:8251   */\n      swap2\n      pop\n        /* \"#utility.yul\":7993:8257   */\n      pop\n        /* \"#utility.yul\":7918:8257   */\n      swap3\n      swap2\n      pop\n      pop\n      jump\t// out\n        /* \"#utility.yul\":8263:9109   */\n    tag_24:\n        /* \"#utility.yul\":8373:8379   */\n      0x00\n        /* \"#utility.yul\":8381:8387   */\n      dup1\n        /* \"#utility.yul\":8389:8395   */\n      0x00\n        /* \"#utility.yul\":8438:8441   */\n      0xa0\n        /* \"#utility.yul\":8426:8435   */\n      dup5\n        /* \"#utility.yul\":8417:8424   */\n      dup7\n        /* \"#utility.yul\":8413:8436   */\n      sub\n        /* \"#utility.yul\":8409:8442   */\n      slt\n        /* \"#utility.yul\":8406:8526   */\n      iszero\n      tag_232\n      jumpi\n        /* \"#utility.yul\":8445:8524   */\n      tag_233\n      tag_81\n      jump\t// in\n    tag_233:\n        /* \"#utility.yul\":8406:8526   */\n    tag_232:\n        /* \"#utility.yul\":8565:8566   */\n      0x00\n        /* \"#utility.yul\":8590:8643   */\n      tag_234\n        /* \"#utility.yul\":8635:8642   */\n      dup7\n        /* \"#utility.yul\":8626:8632   */\n      dup3\n        /* \"#utility.yul\":8615:8624   */\n      dup8\n        /* \"#utility.yul\":8611:8633   */\n      add\n        /* \"#utility.yul\":8590:8643   */\n      tag_85\n      jump\t// in\n    tag_234:\n        /* \"#utility.yul\":8580:8643   */\n      swap4\n      pop\n        /* \"#utility.yul\":8536:8653   */\n      pop\n        /* \"#utility.yul\":8720:8722   */\n      0x20\n        /* \"#utility.yul\":8709:8718   */\n      dup5\n        /* \"#utility.yul\":8705:8723   */\n      add\n        /* \"#utility.yul\":8692:8724   */\n      calldataload\n        /* \"#utility.yul\":8751:8769   */\n      0xffffffffffffffff\n        /* \"#utility.yul\":8743:8749   */\n      dup2\n        /* \"#utility.yul\":8740:8770   */\n      gt\n        /* \"#utility.yul\":8737:8854   */\n      iszero\n      tag_235\n      jumpi\n        /* \"#utility.yul\":8773:8852   */\n      tag_236\n      tag_82\n      jump\t// in\n    tag_236:\n        /* \"#utility.yul\":8737:8854   */\n    tag_235:\n        /* \"#utility.yul\":8878:8941   */\n      tag_237\n        /* \"#utility.yul\":8933:8940   */\n      dup7\n        /* \"#utility.yul\":8924:8930   */\n      dup3\n        /* \"#utility.yul\":8913:8922   */\n      dup8\n        /* \"#utility.yul\":8909:8931   */\n      add\n        /* \"#utility.yul\":8878:8941   */\n      tag_107\n      jump\t// in\n    tag_237:\n        /* \"#utility.yul\":8868:8941   */\n      swap3\n      pop\n        /* \"#utility.yul\":8663:8951   */\n      pop\n        /* \"#utility.yul\":8990:8992   */\n      0x40\n        /* \"#utility.yul\":9016:9092   */\n      tag_238\n        /* \"#utility.yul\":9084:9091   */\n      dup7\n        /* \"#utility.yul\":9075:9081   */\n      dup3\n        /* \"#utility.yul\":9064:9073   */\n      dup8\n        /* \"#utility.yul\":9060:9082   */\n      add\n        /* \"#utility.yul\":9016:9092   */\n      tag_111\n      jump\t// in\n    tag_238:\n        /* \"#utility.yul\":9006:9092   */\n      swap2\n      pop\n        /* \"#utility.yul\":8961:9102   */\n      pop\n        /* \"#utility.yul\":8263:9109   */\n      swap3\n      pop\n      swap3\n      pop\n      swap3\n      jump\t// out\n        /* \"#utility.yul\":9115:9241   */\n    tag_112:\n        /* \"#utility.yul\":9152:9159   */\n      0x00\n        /* \"#utility.yul\":9192:9234   */\n      0xffffffffffffffffffffffffffffffffffffffff\n        /* \"#utility.yul\":9185:9190   */\n      dup3\n        /* \"#utility.yul\":9181:9235   */\n      and\n        /* \"#utility.yul\":9170:9235   */\n      swap1\n      pop\n        /* \"#utility.yul\":9115:9241   */\n      swap2\n      swap1\n      pop\n      jump\t// out\n        /* \"#utility.yul\":9247:9343   */\n    tag_113:\n        /* \"#utility.yul\":9284:9291   */\n      0x00\n        /* \"#utility.yul\":9313:9337   */\n      tag_241\n        /* \"#utility.yul\":9331:9336   */\n      dup3\n        /* \"#utility.yul\":9313:9337   */\n      tag_112\n      jump\t// in\n    tag_241:\n        /* \"#utility.yul\":9302:9337   */\n      swap1\n      pop\n        /* \"#utility.yul\":9247:9343   */\n      swap2\n      swap1\n      pop\n      jump\t// out\n        /* \"#utility.yul\":9349:9467   */\n    tag_114:\n        /* \"#utility.yul\":9436:9460   */\n      tag_243\n        /* \"#utility.yul\":9454:9459   */\n      dup2\n        /* \"#utility.yul\":9436:9460   */\n      tag_113\n      jump\t// in\n    tag_243:\n        /* \"#utility.yul\":9431:9434   */\n      dup3\n        /* \"#utility.yul\":9424:9461   */\n      mstore\n        /* \"#utility.yul\":9349:9467   */\n      pop\n      pop\n      jump\t// out\n        /* \"#utility.yul\":9473:9695   */\n    tag_29:\n        /* \"#utility.yul\":9566:9570   */\n      0x00\n        /* \"#utility.yul\":9604:9606   */\n      0x20\n        /* \"#utility.yul\":9593:9602   */\n      dup3\n        /* \"#utility.yul\":9589:9607   */\n      add\n        /* \"#utility.yul\":9581:9607   */\n      swap1\n      pop\n        /* \"#utility.yul\":9617:9688   */\n      tag_245\n        /* \"#utility.yul\":9685:9686   */\n      0x00\n        /* \"#utility.yul\":9674:9683   */\n      dup4\n        /* \"#utility.yul\":9670:9687   */\n      add\n        /* \"#utility.yul\":9661:9667   */\n      dup5\n        /* \"#utility.yul\":9617:9688   */\n      tag_114\n      jump\t// in\n    tag_245:\n        /* \"#utility.yul\":9473:9695   */\n      swap3\n      swap2\n      pop\n      pop\n      jump\t// out\n        /* \"#utility.yul\":9701:9872   */\n    tag_115:\n        /* \"#utility.yul\":9841:9864   */\n      0x5265636f726420646f6573206e6f742065786974730000000000000000000000\n        /* \"#utility.yul\":9837:9838   */\n      0x00\n        /* \"#utility.yul\":9829:9835   */\n      dup3\n        /* \"#utility.yul\":9825:9839   */\n      add\n        /* \"#utility.yul\":9818:9865   */\n      mstore\n        /* \"#utility.yul\":9701:9872   */\n      pop\n      jump\t// out\n        /* \"#utility.yul\":9878:10244   */\n    tag_116:\n        /* \"#utility.yul\":10020:10023   */\n      0x00\n        /* \"#utility.yul\":10041:10108   */\n      tag_248\n        /* \"#utility.yul\":10105:10107   */\n      0x15\n        /* \"#utility.yul\":10100:10103   */\n      dup4\n        /* \"#utility.yul\":10041:10108   */\n      tag_88\n      jump\t// in\n    tag_248:\n        /* \"#utility.yul\":10034:10108   */\n      swap2\n      pop\n        /* \"#utility.yul\":10117:10210   */\n      tag_249\n        /* \"#utility.yul\":10206:10209   */\n      dup3\n        /* \"#utility.yul\":10117:10210   */\n      tag_115\n      jump\t// in\n    tag_249:\n        /* \"#utility.yul\":10235:10237   */\n      0x20\n        /* \"#utility.yul\":10230:10233   */\n      dup3\n        /* \"#utility.yul\":10226:10238   */\n      add\n        /* \"#utility.yul\":10219:10238   */\n      swap1\n      pop\n        /* \"#utility.yul\":9878:10244   */\n      swap2\n      swap1\n      pop\n      jump\t// out\n        /* \"#utility.yul\":10250:10669   */\n    tag_35:\n        /* \"#utility.yul\":10416:10420   */\n      0x00\n        /* \"#utility.yul\":10454:10456   */\n      0x20\n        /* \"#utility.yul\":10443:10452   */\n      dup3\n        /* \"#utility.yul\":10439:10457   */\n      add\n        /* \"#utility.yul\":10431:10457   */\n      swap1\n      pop\n        /* \"#utility.yul\":10503:10512   */\n      dup2\n        /* \"#utility.yul\":10497:10501   */\n      dup2\n        /* \"#utility.yul\":10493:10513   */\n      sub\n        /* \"#utility.yul\":10489:10490   */\n      0x00\n        /* \"#utility.yul\":10478:10487   */\n      dup4\n        /* \"#utility.yul\":10474:10491   */\n      add\n        /* \"#utility.yul\":10467:10514   */\n      mstore\n        /* \"#utility.yul\":10531:10662   */\n      tag_251\n        /* \"#utility.yul\":10657:10661   */\n      dup2\n        /* \"#utility.yul\":10531:10662   */\n      tag_116\n      jump\t// in\n    tag_251:\n        /* \"#utility.yul\":10523:10662   */\n      swap1\n      pop\n        /* \"#utility.yul\":10250:10669   */\n      swap2\n      swap1\n      pop\n      jump\t// out\n        /* \"#utility.yul\":10675:10855   */\n    tag_117:\n        /* \"#utility.yul\":10723:10800   */\n      0x4e487b7100000000000000000000000000000000000000000000000000000000\n        /* \"#utility.yul\":10720:10721   */\n      0x00\n        /* \"#utility.yul\":10713:10801   */\n      mstore\n        /* \"#utility.yul\":10820:10824   */\n      0x22\n        /* \"#utility.yul\":10817:10818   */\n      0x04\n        /* \"#utility.yul\":10810:10825   */\n      mstore\n        /* \"#utility.yul\":10844:10848   */\n      0x24\n        /* \"#utility.yul\":10841:10842   */\n      0x00\n        /* \"#utility.yul\":10834:10849   */\n      revert\n        /* \"#utility.yul\":10861:11181   */\n    tag_37:\n        /* \"#utility.yul\":10905:10911   */\n      0x00\n        /* \"#utility.yul\":10942:10943   */\n      0x02\n        /* \"#utility.yul\":10936:10940   */\n      dup3\n        /* \"#utility.yul\":10932:10944   */\n      div\n        /* \"#utility.yul\":10922:10944   */\n      swap1\n      pop\n        /* \"#utility.yul\":10989:10990   */\n      0x01\n        /* \"#utility.yul\":10983:10987   */\n      dup3\n        /* \"#utility.yul\":10979:10991   */\n      and\n        /* \"#utility.yul\":11010:11028   */\n      dup1\n        /* \"#utility.yul\":11000:11081   */\n      tag_254\n      jumpi\n        /* \"#utility.yul\":11066:11070   */\n      0x7f\n        /* \"#utility.yul\":11058:11064   */\n      dup3\n        /* \"#utility.yul\":11054:11071   */\n      and\n        /* \"#utility.yul\":11044:11071   */\n      swap2\n      pop\n        /* \"#utility.yul\":11000:11081   */\n    tag_254:\n        /* \"#utility.yul\":11128:11130   */\n      0x20\n        /* \"#utility.yul\":11120:11126   */\n      dup3\n        /* \"#utility.yul\":11117:11131   */\n      lt\n        /* \"#utility.yul\":11097:11115   */\n      dup2\n        /* \"#utility.yul\":11094:11132   */\n      sub\n        /* \"#utility.yul\":11091:11175   */\n      tag_255\n      jumpi\n        /* \"#utility.yul\":11147:11165   */\n      tag_256\n      tag_117\n      jump\t// in\n    tag_256:\n        /* \"#utility.yul\":11091:11175   */\n    tag_255:\n        /* \"#utility.yul\":10912:11181   */\n      pop\n        /* \"#utility.yul\":10861:11181   */\n      swap2\n      swap1\n      pop\n      jump\t// out\n        /* \"#utility.yul\":11187:11417   */\n    tag_118:\n        /* \"#utility.yul\":11327:11361   */\n      0x4f6e6c792074686520746561636865722063616e20706572666f726d20746869\n        /* \"#utility.yul\":11323:11324   */\n      0x00\n        /* \"#utility.yul\":11315:11321   */\n      dup3\n        /* \"#utility.yul\":11311:11325   */\n      add\n        /* \"#utility.yul\":11304:11362   */\n      mstore\n        /* \"#utility.yul\":11396:11409   */\n      0x73206f7065726174696f6e000000000000000000000000000000000000000000\n        /* \"#utility.yul\":11391:11393   */\n      0x20\n        /* \"#utility.yul\":11383:11389   */\n      dup3\n        /* \"#utility.yul\":11379:11394   */\n      add\n        /* \"#utility.yul\":11372:11410   */\n      mstore\n        /* \"#utility.yul\":11187:11417   */\n      pop\n      jump\t// out\n        /* \"#utility.yul\":11423:11789   */\n    tag_119:\n        /* \"#utility.yul\":11565:11568   */\n      0x00\n        /* \"#utility.yul\":11586:11653   */\n      tag_259\n        /* \"#utility.yul\":11650:11652   */\n      0x2b\n        /* \"#utility.yul\":11645:11648   */\n      dup4\n        /* \"#utility.yul\":11586:11653   */\n      tag_88\n      jump\t// in\n    tag_259:\n        /* \"#utility.yul\":11579:11653   */\n      swap2\n      pop\n        /* \"#utility.yul\":11662:11755   */\n      tag_260\n        /* \"#utility.yul\":11751:11754   */\n      dup3\n        /* \"#utility.yul\":11662:11755   */\n      tag_118\n      jump\t// in\n    tag_260:\n        /* \"#utility.yul\":11780:11782   */\n      0x40\n        /* \"#utility.yul\":11775:11778   */\n      dup3\n        /* \"#utility.yul\":11771:11783   */\n      add\n        /* \"#utility.yul\":11764:11783   */\n      swap1\n      pop\n        /* \"#utility.yul\":11423:11789   */\n      swap2\n      swap1\n      pop\n      jump\t// out\n        /* \"#utility.yul\":11795:12214   */\n    tag_47:\n        /* \"#utility.yul\":11961:11965   */\n      0x00\n        /* \"#utility.yul\":11999:12001   */\n      0x20\n        /* \"#utility.yul\":11988:11997   */\n      dup3\n        /* \"#utility.yul\":11984:12002   */\n      add\n        /* \"#utility.yul\":11976:12002   */\n      swap1\n      pop\n        /* \"#utility.yul\":12048:12057   */\n      dup2\n        /* \"#utility.yul\":12042:12046   */\n      dup2\n        /* \"#utility.yul\":12038:12058   */\n      sub\n        /* \"#utility.yul\":12034:12035   */\n      0x00\n        /* \"#utility.yul\":12023:12032   */\n      dup4\n        /* \"#utility.yul\":12019:12036   */\n      add\n        /* \"#utility.yul\":12012:12059   */\n      mstore\n        /* \"#utility.yul\":12076:12207   */\n      tag_262\n        /* \"#utility.yul\":12202:12206   */\n      dup2\n        /* \"#utility.yul\":12076:12207   */\n      tag_119\n      jump\t// in\n    tag_262:\n        /* \"#utility.yul\":12068:12207   */\n      swap1\n      pop\n        /* \"#utility.yul\":11795:12214   */\n      swap2\n      swap1\n      pop\n      jump\t// out\n        /* \"#utility.yul\":12220:12391   */\n    tag_120:\n        /* \"#utility.yul\":12360:12383   */\n      0x5265636f726420646f6573206e6f742065786973740000000000000000000000\n        /* \"#utility.yul\":12356:12357   */\n      0x00\n        /* \"#utility.yul\":12348:12354   */\n      dup3\n        /* \"#utility.yul\":12344:12358   */\n      add\n        /* \"#utility.yul\":12337:12384   */\n      mstore\n        /* \"#utility.yul\":12220:12391   */\n      pop\n      jump\t// out\n        /* \"#utility.yul\":12397:12763   */\n    tag_121:\n        /* \"#utility.yul\":12539:12542   */\n      0x00\n        /* \"#utility.yul\":12560:12627   */\n      tag_265\n        /* \"#utility.yul\":12624:12626   */\n      0x15\n        /* \"#utility.yul\":12619:12622   */\n      dup4\n        /* \"#utility.yul\":12560:12627   */\n      tag_88\n      jump\t// in\n    tag_265:\n        /* \"#utility.yul\":12553:12627   */\n      swap2\n      pop\n        /* \"#utility.yul\":12636:12729   */\n      tag_266\n        /* \"#utility.yul\":12725:12728   */\n      dup3\n        /* \"#utility.yul\":12636:12729   */\n      tag_120\n      jump\t// in\n    tag_266:\n        /* \"#utility.yul\":12754:12756   */\n      0x20\n        /* \"#utility.yul\":12749:12752   */\n      dup3\n        /* \"#utility.yul\":12745:12757   */\n      add\n        /* \"#utility.yul\":12738:12757   */\n      swap1\n      pop\n        /* \"#utility.yul\":12397:12763   */\n      swap2\n      swap1\n      pop\n      jump\t// out\n        /* \"#utility.yul\":12769:13188   */\n    tag_51:\n        /* \"#utility.yul\":12935:12939   */\n      0x00\n        /* \"#utility.yul\":12973:12975   */\n      0x20\n        /* \"#utility.yul\":12962:12971   */\n      dup3\n        /* \"#utility.yul\":12958:12976   */\n      add\n        /* \"#utility.yul\":12950:12976   */\n      swap1\n      pop\n        /* \"#utility.yul\":13022:13031   */\n      dup2\n        /* \"#utility.yul\":13016:13020   */\n      dup2\n        /* \"#utility.yul\":13012:13032   */\n      sub\n        /* \"#utility.yul\":13008:13009   */\n      0x00\n        /* \"#utility.yul\":12997:13006   */\n      dup4\n        /* \"#utility.yul\":12993:13010   */\n      add\n        /* \"#utility.yul\":12986:13033   */\n      mstore\n        /* \"#utility.yul\":13050:13181   */\n      tag_268\n        /* \"#utility.yul\":13176:13180   */\n      dup2\n        /* \"#utility.yul\":13050:13181   */\n      tag_121\n      jump\t// in\n    tag_268:\n        /* \"#utility.yul\":13042:13181   */\n      swap1\n      pop\n        /* \"#utility.yul\":12769:13188   */\n      swap2\n      swap1\n      pop\n      jump\t// out\n        /* \"#utility.yul\":13194:13335   */\n    tag_122:\n        /* \"#utility.yul\":13243:13247   */\n      0x00\n        /* \"#utility.yul\":13266:13269   */\n      dup2\n        /* \"#utility.yul\":13258:13269   */\n      swap1\n      pop\n        /* \"#utility.yul\":13289:13292   */\n      dup2\n        /* \"#utility.yul\":13286:13287   */\n      0x00\n        /* \"#utility.yul\":13279:13293   */\n      mstore\n        /* \"#utility.yul\":13323:13327   */\n      0x20\n        /* \"#utility.yul\":13320:13321   */\n      0x00\n        /* \"#utility.yul\":13310:13328   */\n      keccak256\n        /* \"#utility.yul\":13302:13328   */\n      swap1\n      pop\n        /* \"#utility.yul\":13194:13335   */\n      swap2\n      swap1\n      pop\n      jump\t// out\n        /* \"#utility.yul\":13341:13434   */\n    tag_123:\n        /* \"#utility.yul\":13378:13384   */\n      0x00\n        /* \"#utility.yul\":13425:13427   */\n      0x20\n        /* \"#utility.yul\":13420:13422   */\n      0x1f\n        /* \"#utility.yul\":13413:13418   */\n      dup4\n        /* \"#utility.yul\":13409:13423   */\n      add\n        /* \"#utility.yul\":13405:13428   */\n      div\n        /* \"#utility.yul\":13395:13428   */\n      swap1\n      pop\n        /* \"#utility.yul\":13341:13434   */\n      swap2\n      swap1\n      pop\n      jump\t// out\n        /* \"#utility.yul\":13440:13547   */\n    tag_124:\n        /* \"#utility.yul\":13484:13492   */\n      0x00\n        /* \"#utility.yul\":13534:13539   */\n      dup3\n        /* \"#utility.yul\":13528:13532   */\n      dup3\n        /* \"#utility.yul\":13524:13540   */\n      shl\n        /* \"#utility.yul\":13503:13540   */\n      swap1\n      pop\n        /* \"#utility.yul\":13440:13547   */\n      swap3\n      swap2\n      pop\n      pop\n      jump\t// out\n        /* \"#utility.yul\":13553:13946   */\n    tag_125:\n        /* \"#utility.yul\":13622:13628   */\n      0x00\n        /* \"#utility.yul\":13672:13673   */\n      0x08\n        /* \"#utility.yul\":13660:13670   */\n      dup4\n        /* \"#utility.yul\":13656:13674   */\n      mul\n        /* \"#utility.yul\":13695:13792   */\n      tag_273\n        /* \"#utility.yul\":13725:13791   */\n      0xffffffffffffffffffffffffffffffffffffffffffffffffffffffffffffffff\n        /* \"#utility.yul\":13714:13723   */\n      dup3\n        /* \"#utility.yul\":13695:13792   */\n      tag_124\n      jump\t// in\n    tag_273:\n        /* \"#utility.yul\":13813:13852   */\n      tag_274\n        /* \"#utility.yul\":13843:13851   */\n      dup7\n        /* \"#utility.yul\":13832:13841   */\n      dup4\n        /* \"#utility.yul\":13813:13852   */\n      tag_124\n      jump\t// in\n    tag_274:\n        /* \"#utility.yul\":13801:13852   */\n      swap6\n      pop\n        /* \"#utility.yul\":13885:13889   */\n      dup1\n        /* \"#utility.yul\":13881:13890   */\n      not\n        /* \"#utility.yul\":13874:13879   */\n      dup5\n        /* \"#utility.yul\":13870:13891   */\n      and\n        /* \"#utility.yul\":13861:13891   */\n      swap4\n      pop\n        /* \"#utility.yul\":13934:13938   */\n      dup1\n        /* \"#utility.yul\":13924:13932   */\n      dup7\n        /* \"#utility.yul\":13920:13939   */\n      and\n        /* \"#utility.yul\":13913:13918   */\n      dup5\n        /* \"#utility.yul\":13910:13940   */\n      or\n        /* \"#utility.yul\":13900:13940   */\n      swap3\n      pop\n        /* \"#utility.yul\":13629:13946   */\n      pop\n      pop\n        /* \"#utility.yul\":13553:13946   */\n      swap4\n      swap3\n      pop\n      pop\n      pop\n      jump\t// out\n        /* \"#utility.yul\":13952:14012   */\n    tag_126:\n        /* \"#utility.yul\":13980:13983   */\n      0x00\n        /* \"#utility.yul\":14001:14006   */\n      dup2\n        /* \"#utility.yul\":13994:14006   */\n      swap1\n      pop\n        /* \"#utility.yul\":13952:14012   */\n      swap2\n      swap1\n      pop\n      jump\t// out\n        /* \"#utility.yul\":14018:14160   */\n    tag_127:\n        /* \"#utility.yul\":14068:14077   */\n      0x00\n        /* \"#utility.yul\":14101:14154   */\n      tag_277\n        /* \"#utility.yul\":14119:14153   */\n      tag_278\n        /* \"#utility.yul\":14128:14152   */\n      tag_279\n        /* \"#utility.yul\":14146:14151   */\n      dup5\n        /* \"#utility.yul\":14128:14152   */\n      tag_83\n      jump\t// in\n    tag_279:\n        /* \"#utility.yul\":14119:14153   */\n      tag_126\n      jump\t// in\n    tag_278:\n        /* \"#utility.yul\":14101:14154   */\n      tag_83\n      jump\t// in\n    tag_277:\n        /* \"#utility.yul\":14088:14154   */\n      swap1\n      pop\n        /* \"#utility.yul\":14018:14160   */\n      swap2\n      swap1\n      pop\n      jump\t// out\n        /* \"#utility.yul\":14166:14241   */\n    tag_128:\n        /* \"#utility.yul\":14209:14212   */\n      0x00\n        /* \"#utility.yul\":14230:14235   */\n      dup2\n        /* \"#utility.yul\":14223:14235   */\n      swap1\n      pop\n        /* \"#utility.yul\":14166:14241   */\n      swap2\n      swap1\n      pop\n      jump\t// out\n        /* \"#utility.yul\":14247:14516   */\n    tag_129:\n        /* \"#utility.yul\":14357:14396   */\n      tag_282\n        /* \"#utility.yul\":14388:14395   */\n      dup4\n        /* \"#utility.yul\":14357:14396   */\n      tag_127\n      jump\t// in\n    tag_282:\n        /* \"#utility.yul\":14418:14509   */\n      tag_283\n        /* \"#utility.yul\":14467:14508   */\n      tag_284\n        /* \"#utility.yul\":14491:14507   */\n      dup3\n        /* \"#utility.yul\":14467:14508   */\n      tag_128\n      jump\t// in\n    tag_284:\n        /* \"#utility.yul\":14459:14465   */\n      dup5\n        /* \"#utility.yul\":14452:14456   */\n      dup5\n        /* \"#utility.yul\":14446:14457   */\n      sload\n        /* \"#utility.yul\":14418:14509   */\n      tag_125\n      jump\t// in\n    tag_283:\n        /* \"#utility.yul\":14412:14416   */\n      dup3\n        /* \"#utility.yul\":14405:14510   */\n      sstore\n        /* \"#utility.yul\":14323:14516   */\n      pop\n        /* \"#utility.yul\":14247:14516   */\n      pop\n      pop\n      pop\n      jump\t// out\n        /* \"#utility.yul\":14522:14595   */\n    tag_130:\n        /* \"#utility.yul\":14567:14570   */\n      0x00\n        /* \"#utility.yul\":14522:14595   */\n      swap1\n      jump\t// out\n        /* \"#utility.yul\":14601:14790   */\n    tag_131:\n        /* \"#utility.yul\":14678:14710   */\n      tag_287\n      tag_130\n      jump\t// in\n    tag_287:\n        /* \"#utility.yul\":14719:14784   */\n      tag_288\n        /* \"#utility.yul\":14777:14783   */\n      dup2\n        /* \"#utility.yul\":14769:14775   */\n      dup5\n        /* \"#utility.yul\":14763:14767   */\n      dup5\n        /* \"#utility.yul\":14719:14784   */\n      tag_129\n      jump\t// in\n    tag_288:\n        /* \"#utility.yul\":14654:14790   */\n      pop\n        /* \"#utility.yul\":14601:14790   */\n      pop\n      pop\n      jump\t// out\n        /* \"#utility.yul\":14796:14982   */\n    tag_132:\n        /* \"#utility.yul\":14856:14976   */\n    tag_290:\n        /* \"#utility.yul\":14873:14876   */\n      dup2\n        /* \"#utility.yul\":14866:14871   */\n      dup2\n        /* \"#utility.yul\":14863:14877   */\n      lt\n        /* \"#utility.yul\":14856:14976   */\n      iszero\n      tag_292\n      jumpi\n        /* \"#utility.yul\":14927:14966   */\n      tag_293\n        /* \"#utility.yul\":14964:14965   */\n      0x00\n        /* \"#utility.yul\":14957:14962   */\n      dup3\n        /* \"#utility.yul\":14927:14966   */\n      tag_131\n      jump\t// in\n    tag_293:\n        /* \"#utility.yul\":14900:14901   */\n      0x01\n        /* \"#utility.yul\":14893:14898   */\n      dup2\n        /* \"#utility.yul\":14889:14902   */\n      add\n        /* \"#utility.yul\":14880:14902   */\n      swap1\n      pop\n        /* \"#utility.yul\":14856:14976   */\n      jump(tag_290)\n    tag_292:\n        /* \"#utility.yul\":14796:14982   */\n      pop\n      pop\n      jump\t// out\n        /* \"#utility.yul\":14988:15531   */\n    tag_133:\n        /* \"#utility.yul\":15089:15091   */\n      0x1f\n        /* \"#utility.yul\":15084:15087   */\n      dup3\n        /* \"#utility.yul\":15081:15092   */\n      gt\n        /* \"#utility.yul\":15078:15524   */\n      iszero\n      tag_295\n      jumpi\n        /* \"#utility.yul\":15123:15161   */\n      tag_296\n        /* \"#utility.yul\":15155:15160   */\n      dup2\n        /* \"#utility.yul\":15123:15161   */\n      tag_122\n      jump\t// in\n    tag_296:\n        /* \"#utility.yul\":15207:15236   */\n      tag_297\n        /* \"#utility.yul\":15225:15235   */\n      dup5\n        /* \"#utility.yul\":15207:15236   */\n      tag_123\n      jump\t// in\n    tag_297:\n        /* \"#utility.yul\":15197:15205   */\n      dup2\n        /* \"#utility.yul\":15193:15237   */\n      add\n        /* \"#utility.yul\":15390:15392   */\n      0x20\n        /* \"#utility.yul\":15378:15388   */\n      dup6\n        /* \"#utility.yul\":15375:15393   */\n      lt\n        /* \"#utility.yul\":15372:15421   */\n      iszero\n      tag_298\n      jumpi\n        /* \"#utility.yul\":15411:15419   */\n      dup2\n        /* \"#utility.yul\":15396:15419   */\n      swap1\n      pop\n        /* \"#utility.yul\":15372:15421   */\n    tag_298:\n        /* \"#utility.yul\":15434:15514   */\n      tag_299\n        /* \"#utility.yul\":15490:15512   */\n      tag_300\n        /* \"#utility.yul\":15508:15511   */\n      dup6\n        /* \"#utility.yul\":15490:15512   */\n      tag_123\n      jump\t// in\n    tag_300:\n        /* \"#utility.yul\":15480:15488   */\n      dup4\n        /* \"#utility.yul\":15476:15513   */\n      add\n        /* \"#utility.yul\":15463:15474   */\n      dup3\n        /* \"#utility.yul\":15434:15514   */\n      tag_132\n      jump\t// in\n    tag_299:\n        /* \"#utility.yul\":15093:15524   */\n      pop\n      pop\n        /* \"#utility.yul\":15078:15524   */\n    tag_295:\n        /* \"#utility.yul\":14988:15531   */\n      pop\n      pop\n      pop\n      jump\t// out\n        /* \"#utility.yul\":15537:15654   */\n    tag_134:\n        /* \"#utility.yul\":15591:15599   */\n      0x00\n        /* \"#utility.yul\":15641:15646   */\n      dup3\n        /* \"#utility.yul\":15635:15639   */\n      dup3\n        /* \"#utility.yul\":15631:15647   */\n      shr\n        /* \"#utility.yul\":15610:15647   */\n      swap1\n      pop\n        /* \"#utility.yul\":15537:15654   */\n      swap3\n      swap2\n      pop\n      pop\n      jump\t// out\n        /* \"#utility.yul\":15660:15829   */\n    tag_135:\n        /* \"#utility.yul\":15704:15710   */\n      0x00\n        /* \"#utility.yul\":15737:15788   */\n      tag_303\n        /* \"#utility.yul\":15785:15786   */\n      0x00\n        /* \"#utility.yul\":15781:15787   */\n      not\n        /* \"#utility.yul\":15773:15778   */\n      dup5\n        /* \"#utility.yul\":15770:15771   */\n      0x08\n        /* \"#utility.yul\":15766:15779   */\n      mul\n        /* \"#utility.yul\":15737:15788   */\n      tag_134\n      jump\t// in\n    tag_303:\n        /* \"#utility.yul\":15733:15789   */\n      not\n        /* \"#utility.yul\":15818:15822   */\n      dup1\n        /* \"#utility.yul\":15812:15816   */\n      dup4\n        /* \"#utility.yul\":15808:15823   */\n      and\n        /* \"#utility.yul\":15798:15823   */\n      swap2\n      pop\n        /* \"#utility.yul\":15711:15829   */\n      pop\n        /* \"#utility.yul\":15660:15829   */\n      swap3\n      swap2\n      pop\n      pop\n      jump\t// out\n        /* \"#utility.yul\":15834:16129   */\n    tag_136:\n        /* \"#utility.yul\":15910:15914   */\n      0x00\n        /* \"#utility.yul\":16056:16085   */\n      tag_305\n        /* \"#utility.yul\":16081:16084   */\n      dup4\n        /* \"#utility.yul\":16075:16079   */\n      dup4\n        /* \"#utility.yul\":16056:16085   */\n      tag_135\n      jump\t// in\n    tag_305:\n        /* \"#utility.yul\":16048:16085   */\n      swap2\n      pop\n        /* \"#utility.yul\":16118:16121   */\n      dup3\n        /* \"#utility.yul\":16115:16116   */\n      0x02\n        /* \"#utility.yul\":16111:16122   */\n      mul\n        /* \"#utility.yul\":16105:16109   */\n      dup3\n        /* \"#utility.yul\":16102:16123   */\n      or\n        /* \"#utility.yul\":16094:16123   */\n      swap1\n      pop\n        /* \"#utility.yul\":15834:16129   */\n      swap3\n      swap2\n      pop\n      pop\n      jump\t// out\n        /* \"#utility.yul\":16134:17529   */\n    tag_66:\n        /* \"#utility.yul\":16251:16288   */\n      tag_307\n        /* \"#utility.yul\":16284:16287   */\n      dup3\n        /* \"#utility.yul\":16251:16288   */\n      tag_87\n      jump\t// in\n    tag_307:\n        /* \"#utility.yul\":16353:16371   */\n      0xffffffffffffffff\n        /* \"#utility.yul\":16345:16351   */\n      dup2\n        /* \"#utility.yul\":16342:16372   */\n      gt\n        /* \"#utility.yul\":16339:16395   */\n      iszero\n      tag_308\n      jumpi\n        /* \"#utility.yul\":16375:16393   */\n      tag_309\n      tag_101\n      jump\t// in\n    tag_309:\n        /* \"#utility.yul\":16339:16395   */\n    tag_308:\n        /* \"#utility.yul\":16419:16457   */\n      tag_310\n        /* \"#utility.yul\":16451:16455   */\n      dup3\n        /* \"#utility.yul\":16445:16456   */\n      sload\n        /* \"#utility.yul\":16419:16457   */\n      tag_37\n      jump\t// in\n    tag_310:\n        /* \"#utility.yul\":16504:16571   */\n      tag_311\n        /* \"#utility.yul\":16564:16570   */\n      dup3\n        /* \"#utility.yul\":16556:16562   */\n      dup3\n        /* \"#utility.yul\":16550:16554   */\n      dup6\n        /* \"#utility.yul\":16504:16571   */\n      tag_133\n      jump\t// in\n    tag_311:\n        /* \"#utility.yul\":16598:16599   */\n      0x00\n        /* \"#utility.yul\":16622:16626   */\n      0x20\n        /* \"#utility.yul\":16609:16626   */\n      swap1\n      pop\n        /* \"#utility.yul\":16654:16656   */\n      0x1f\n        /* \"#utility.yul\":16646:16652   */\n      dup4\n        /* \"#utility.yul\":16643:16657   */\n      gt\n        /* \"#utility.yul\":16671:16672   */\n      0x01\n        /* \"#utility.yul\":16666:17284   */\n      dup2\n      eq\n      tag_313\n      jumpi\n        /* \"#utility.yul\":17328:17329   */\n      0x00\n        /* \"#utility.yul\":17345:17351   */\n      dup5\n        /* \"#utility.yul\":17342:17419   */\n      iszero\n      tag_314\n      jumpi\n        /* \"#utility.yul\":17394:17403   */\n      dup3\n        /* \"#utility.yul\":17389:17392   */\n      dup8\n        /* \"#utility.yul\":17385:17404   */\n      add\n        /* \"#utility.yul\":17379:17405   */\n      mload\n        /* \"#utility.yul\":17370:17405   */\n      swap1\n      pop\n        /* \"#utility.yul\":17342:17419   */\n    tag_314:\n        /* \"#utility.yul\":17445:17512   */\n      tag_315\n        /* \"#utility.yul\":17505:17511   */\n      dup6\n        /* \"#utility.yul\":17498:17503   */\n      dup3\n        /* \"#utility.yul\":17445:17512   */\n      tag_136\n      jump\t// in\n    tag_315:\n        /* \"#utility.yul\":17439:17443   */\n      dup7\n        /* \"#utility.yul\":17432:17513   */\n      sstore\n        /* \"#utility.yul\":17301:17523   */\n      pop\n        /* \"#utility.yul\":16636:17523   */\n      jump(tag_312)\n        /* \"#utility.yul\":16666:17284   */\n    tag_313:\n        /* \"#utility.yul\":16718:16722   */\n      0x1f\n        /* \"#utility.yul\":16714:16723   */\n      not\n        /* \"#utility.yul\":16706:16712   */\n      dup5\n        /* \"#utility.yul\":16702:16724   */\n      and\n        /* \"#utility.yul\":16752:16789   */\n      tag_316\n        /* \"#utility.yul\":16784:16788   */\n      dup7\n        /* \"#utility.yul\":16752:16789   */\n      tag_122\n      jump\t// in\n    tag_316:\n        /* \"#utility.yul\":16811:16812   */\n      0x00\n        /* \"#utility.yul\":16825:17033   */\n    tag_317:\n        /* \"#utility.yul\":16839:16846   */\n      dup3\n        /* \"#utility.yul\":16836:16837   */\n      dup2\n        /* \"#utility.yul\":16833:16847   */\n      lt\n        /* \"#utility.yul\":16825:17033   */\n      iszero\n      tag_319\n      jumpi\n        /* \"#utility.yul\":16918:16927   */\n      dup5\n        /* \"#utility.yul\":16913:16916   */\n      dup10\n        /* \"#utility.yul\":16909:16928   */\n      add\n        /* \"#utility.yul\":16903:16929   */\n      mload\n        /* \"#utility.yul\":16895:16901   */\n      dup3\n        /* \"#utility.yul\":16888:16930   */\n      sstore\n        /* \"#utility.yul\":16969:16970   */\n      0x01\n        /* \"#utility.yul\":16961:16967   */\n      dup3\n        /* \"#utility.yul\":16957:16971   */\n      add\n        /* \"#utility.yul\":16947:16971   */\n      swap2\n      pop\n        /* \"#utility.yul\":17016:17018   */\n      0x20\n        /* \"#utility.yul\":17005:17014   */\n      dup6\n        /* \"#utility.yul\":17001:17019   */\n      add\n        /* \"#utility.yul\":16988:17019   */\n      swap5\n      pop\n        /* \"#utility.yul\":16862:16866   */\n      0x20\n        /* \"#utility.yul\":16859:16860   */\n      dup2\n        /* \"#utility.yul\":16855:16867   */\n      add\n        /* \"#utility.yul\":16850:16867   */\n      swap1\n      pop\n        /* \"#utility.yul\":16825:17033   */\n      jump(tag_317)\n    tag_319:\n        /* \"#utility.yul\":17061:17067   */\n      dup7\n        /* \"#utility.yul\":17052:17059   */\n      dup4\n        /* \"#utility.yul\":17049:17068   */\n      lt\n        /* \"#utility.yul\":17046:17225   */\n      iszero\n      tag_320\n      jumpi\n        /* \"#utility.yul\":17119:17128   */\n      dup5\n        /* \"#utility.yul\":17114:17117   */\n      dup10\n        /* \"#utility.yul\":17110:17129   */\n      add\n        /* \"#utility.yul\":17104:17130   */\n      mload\n        /* \"#utility.yul\":17162:17210   */\n      tag_321\n        /* \"#utility.yul\":17204:17208   */\n      0x1f\n        /* \"#utility.yul\":17196:17202   */\n      dup10\n        /* \"#utility.yul\":17192:17209   */\n      and\n        /* \"#utility.yul\":17181:17190   */\n      dup3\n        /* \"#utility.yul\":17162:17210   */\n      tag_135\n      jump\t// in\n    tag_321:\n        /* \"#utility.yul\":17154:17160   */\n      dup4\n        /* \"#utility.yul\":17147:17211   */\n      sstore\n        /* \"#utility.yul\":17069:17225   */\n      pop\n        /* \"#utility.yul\":17046:17225   */\n    tag_320:\n        /* \"#utility.yul\":17271:17272   */\n      0x01\n        /* \"#utility.yul\":17267:17268   */\n      0x02\n        /* \"#utility.yul\":17259:17265   */\n      dup9\n        /* \"#utility.yul\":17255:17269   */\n      mul\n        /* \"#utility.yul\":17251:17273   */\n      add\n        /* \"#utility.yul\":17245:17249   */\n      dup9\n        /* \"#utility.yul\":17238:17274   */\n      sstore\n        /* \"#utility.yul\":16673:17284   */\n      pop\n      pop\n      pop\n        /* \"#utility.yul\":16636:17523   */\n    tag_312:\n      pop\n        /* \"#utility.yul\":16226:17529   */\n      pop\n      pop\n      pop\n        /* \"#utility.yul\":16134:17529   */\n      pop\n      pop\n      jump\t// out\n\n    auxdata: 0xa26469706673582212207a96205593f084236687301f3b08145e11b7ecf5f3276c5a9d7aaa2356e6021064736f6c63430008120033\n}\n",
				"bytecode": {
					"linkReferences": {},
					"object": "608060405234801561001057600080fd5b50336000806101000a81548173ffffffffffffffffffffffffffffffffffffffff021916908373ffffffffffffffffffffffffffffffffffffffff160217905550610f90806100606000396000f3fe608060405234801561001057600080fd5b50600436106100575760003560e01c806303e9e6091461005c578063061f98111461008e57806306ead22e146100aa578063afb869ed146100db578063b46bff89146100f7575b600080fd5b61007660048036038101906100719190610677565b610115565b604051610085939291906107ee565b60405180910390f35b6100a860048036038101906100a39190610677565b610265565b005b6100c460048036038101906100bf9190610677565b61038d565b6040516100d292919061082c565b60405180910390f35b6100f560048036038101906100f09190610a47565b610439565b005b6100ff610535565b60405161010c9190610af7565b60405180910390f35b60006060610121610559565b6000600160008681526020019081526020016000209050600081600001540361017f576040517f08c379a000000000000000000000000000000000000000000000000000000000815260040161017690610b5e565b60405180910390fd5b8060000154816001018260020181805461019890610bad565b80601f01602080910402602001604051908101604052809291908181526020018280546101c490610bad565b80156102115780601f106101e657610100808354040283529160200191610211565b820191906000526020600020905b8154815290600101906020018083116101f457829003601f168201915b5050505050915080600380602002604051908101604052809291908260038015610250576020028201915b81548152602001906001019080831161023c575b50505050509050935093509350509193909250565b60008054906101000a900473ffffffffffffffffffffffffffffffffffffffff1673ffffffffffffffffffffffffffffffffffffffff163373ffffffffffffffffffffffffffffffffffffffff16146102f3576040517f08c379a00000000000000000000000000000000000000000000000000000000081526004016102ea90610c50565b60405180910390fd5b600060016000838152602001908152602001600020600001540361034c576040517f08c379a000000000000000000000000000000000000000000000000000000000815260040161034390610cbc565b60405180910390fd5b60016000828152602001908152602001600020600080820160009055600182016000610378919061057b565b60028201600061038891906105bb565b505050565b60016020528060005260406000206000915090508060000154908060010180546103b690610bad565b80601f01602080910402602001604051908101604052809291908181526020018280546103e290610bad565b801561042f5780601f106104045761010080835404028352916020019161042f565b820191906000526020600020905b81548152906001019060200180831161041257829003601f168201915b5050505050905082565b60008054906101000a900473ffffffffffffffffffffffffffffffffffffffff1673ffffffffffffffffffffffffffffffffffffffff163373ffffffffffffffffffffffffffffffffffffffff16146104c7576040517f08c379a00000000000000000000000000000000000000000000000000000000081526004016104be90610c50565b60405180910390fd5b604051806060016040528084815260200183815260200182815250600160008581526020019081526020016000206000820151816000015560208201518160010190816105149190610e88565b5060408201518160020190600361052c9291906105d0565b50905050505050565b60008054906101000a900473ffffffffffffffffffffffffffffffffffffffff1681565b6040518060600160405280600390602082028036833780820191505090505090565b50805461058790610bad565b6000825580601f1061059957506105b8565b601f0160209004906000526020600020908101906105b79190610610565b5b50565b50600081556001016000815560010160009055565b82600381019282156105ff579160200282015b828111156105fe5782518255916020019190600101906105e3565b5b50905061060c9190610610565b5090565b5b80821115610629576000816000905550600101610611565b5090565b6000604051905090565b600080fd5b600080fd5b6000819050919050565b61065481610641565b811461065f57600080fd5b50565b6000813590506106718161064b565b92915050565b60006020828403121561068d5761068c610637565b5b600061069b84828501610662565b91505092915050565b6106ad81610641565b82525050565b600081519050919050565b600082825260208201905092915050565b60005b838110156106ed5780820151818401526020810190506106d2565b60008484015250505050565b6000601f19601f8301169050919050565b6000610715826106b3565b61071f81856106be565b935061072f8185602086016106cf565b610738816106f9565b840191505092915050565b600060039050919050565b600081905092915050565b6000819050919050565b61076c81610641565b82525050565b600061077e8383610763565b60208301905092915050565b6000602082019050919050565b6107a081610743565b6107aa818461074e565b92506107b582610759565b8060005b838110156107e65781516107cd8782610772565b96506107d88361078a565b9250506001810190506107b9565b505050505050565b600060a08201905061080360008301866106a4565b8181036020830152610815818561070a565b90506108246040830184610797565b949350505050565b600060408201905061084160008301856106a4565b8181036020830152610853818461070a565b90509392505050565b600080fd5b600080fd5b7f4e487b7100000000000000000000000000000000000000000000000000000000600052604160045260246000fd5b61089e826106f9565b810181811067ffffffffffffffff821117156108bd576108bc610866565b5b80604052505050565b60006108d061062d565b90506108dc8282610895565b919050565b600067ffffffffffffffff8211156108fc576108fb610866565b5b610905826106f9565b9050602081019050919050565b82818337600083830152505050565b600061093461092f846108e1565b6108c6565b9050828152602081018484840111156109505761094f610861565b5b61095b848285610912565b509392505050565b600082601f8301126109785761097761085c565b5b8135610988848260208601610921565b91505092915050565b600067ffffffffffffffff8211156109ac576109ab610866565b5b602082029050919050565b600080fd5b60006109cf6109ca84610991565b6108c6565b905080602084028301858111156109e9576109e86109b7565b5b835b81811015610a1257806109fe8882610662565b8452602084019350506020810190506109eb565b5050509392505050565b600082601f830112610a3157610a3061085c565b5b6003610a3e8482856109bc565b91505092915050565b600080600060a08486031215610a6057610a5f610637565b5b6000610a6e86828701610662565b935050602084013567ffffffffffffffff811115610a8f57610a8e61063c565b5b610a9b86828701610963565b9250506040610aac86828701610a1c565b9150509250925092565b600073ffffffffffffffffffffffffffffffffffffffff82169050919050565b6000610ae182610ab6565b9050919050565b610af181610ad6565b82525050565b6000602082019050610b0c6000830184610ae8565b92915050565b7f5265636f726420646f6573206e6f742065786974730000000000000000000000600082015250565b6000610b486015836106be565b9150610b5382610b12565b602082019050919050565b60006020820190508181036000830152610b7781610b3b565b9050919050565b7f4e487b7100000000000000000000000000000000000000000000000000000000600052602260045260246000fd5b60006002820490506001821680610bc557607f821691505b602082108103610bd857610bd7610b7e565b5b50919050565b7f4f6e6c792074686520746561636865722063616e20706572666f726d2074686960008201527f73206f7065726174696f6e000000000000000000000000000000000000000000602082015250565b6000610c3a602b836106be565b9150610c4582610bde565b604082019050919050565b60006020820190508181036000830152610c6981610c2d565b9050919050565b7f5265636f726420646f6573206e6f742065786973740000000000000000000000600082015250565b6000610ca66015836106be565b9150610cb182610c70565b602082019050919050565b60006020820190508181036000830152610cd581610c99565b9050919050565b60008190508160005260206000209050919050565b60006020601f8301049050919050565b600082821b905092915050565b600060088302610d3e7fffffffffffffffffffffffffffffffffffffffffffffffffffffffffffffffff82610d01565b610d488683610d01565b95508019841693508086168417925050509392505050565b6000819050919050565b6000610d85610d80610d7b84610641565b610d60565b610641565b9050919050565b6000819050919050565b610d9f83610d6a565b610db3610dab82610d8c565b848454610d0e565b825550505050565b600090565b610dc8610dbb565b610dd3818484610d96565b505050565b5b81811015610df757610dec600082610dc0565b600181019050610dd9565b5050565b601f821115610e3c57610e0d81610cdc565b610e1684610cf1565b81016020851015610e25578190505b610e39610e3185610cf1565b830182610dd8565b50505b505050565b600082821c905092915050565b6000610e5f60001984600802610e41565b1980831691505092915050565b6000610e788383610e4e565b9150826002028217905092915050565b610e91826106b3565b67ffffffffffffffff811115610eaa57610ea9610866565b5b610eb48254610bad565b610ebf828285610dfb565b600060209050601f831160018114610ef25760008415610ee0578287015190505b610eea8582610e6c565b865550610f52565b601f198416610f0086610cdc565b60005b82811015610f2857848901518255600182019150602085019450602081019050610f03565b86831015610f455784890151610f41601f891682610e4e565b8355505b6001600288020188555050505b50505050505056fea26469706673582212207a96205593f084236687301f3b08145e11b7ecf5f3276c5a9d7aaa2356e6021064736f6c63430008120033",
					"opcodes": "PUSH1 0x80 PUSH1 0x40 MSTORE CALLVALUE DUP1 ISZERO PUSH2 0x10 JUMPI PUSH1 0x0 DUP1 REVERT JUMPDEST POP CALLER PUSH1 0x0 DUP1 PUSH2 0x100 EXP DUP2 SLOAD DUP2 PUSH20 0xFFFFFFFFFFFFFFFFFFFFFFFFFFFFFFFFFFFFFFFF MUL NOT AND SWAP1 DUP4 PUSH20 0xFFFFFFFFFFFFFFFFFFFFFFFFFFFFFFFFFFFFFFFF AND MUL OR SWAP1 SSTORE POP PUSH2 0xF90 DUP1 PUSH2 0x60 PUSH1 0x0 CODECOPY PUSH1 0x0 RETURN INVALID PUSH1 0x80 PUSH1 0x40 MSTORE CALLVALUE DUP1 ISZERO PUSH2 0x10 JUMPI PUSH1 0x0 DUP1 REVERT JUMPDEST POP PUSH1 0x4 CALLDATASIZE LT PUSH2 0x57 JUMPI PUSH1 0x0 CALLDATALOAD PUSH1 0xE0 SHR DUP1 PUSH4 0x3E9E609 EQ PUSH2 0x5C JUMPI DUP1 PUSH4 0x61F9811 EQ PUSH2 0x8E JUMPI DUP1 PUSH4 0x6EAD22E EQ PUSH2 0xAA JUMPI DUP1 PUSH4 0xAFB869ED EQ PUSH2 0xDB JUMPI DUP1 PUSH4 0xB46BFF89 EQ PUSH2 0xF7 JUMPI JUMPDEST PUSH1 0x0 DUP1 REVERT JUMPDEST PUSH2 0x76 PUSH1 0x4 DUP1 CALLDATASIZE SUB DUP2 ADD SWAP1 PUSH2 0x71 SWAP2 SWAP1 PUSH2 0x677 JUMP JUMPDEST PUSH2 0x115 JUMP JUMPDEST PUSH1 0x40 MLOAD PUSH2 0x85 SWAP4 SWAP3 SWAP2 SWAP1 PUSH2 0x7EE JUMP JUMPDEST PUSH1 0x40 MLOAD DUP1 SWAP2 SUB SWAP1 RETURN JUMPDEST PUSH2 0xA8 PUSH1 0x4 DUP1 CALLDATASIZE SUB DUP2 ADD SWAP1 PUSH2 0xA3 SWAP2 SWAP1 PUSH2 0x677 JUMP JUMPDEST PUSH2 0x265 JUMP JUMPDEST STOP JUMPDEST PUSH2 0xC4 PUSH1 0x4 DUP1 CALLDATASIZE SUB DUP2 ADD SWAP1 PUSH2 0xBF SWAP2 SWAP1 PUSH2 0x677 JUMP JUMPDEST PUSH2 0x38D JUMP JUMPDEST PUSH1 0x40 MLOAD PUSH2 0xD2 SWAP3 SWAP2 SWAP1 PUSH2 0x82C JUMP JUMPDEST PUSH1 0x40 MLOAD DUP1 SWAP2 SUB SWAP1 RETURN JUMPDEST PUSH2 0xF5 PUSH1 0x4 DUP1 CALLDATASIZE SUB DUP2 ADD SWAP1 PUSH2 0xF0 SWAP2 SWAP1 PUSH2 0xA47 JUMP JUMPDEST PUSH2 0x439 JUMP JUMPDEST STOP JUMPDEST PUSH2 0xFF PUSH2 0x535 JUMP JUMPDEST PUSH1 0x40 MLOAD PUSH2 0x10C SWAP2 SWAP1 PUSH2 0xAF7 JUMP JUMPDEST PUSH1 0x40 MLOAD DUP1 SWAP2 SUB SWAP1 RETURN JUMPDEST PUSH1 0x0 PUSH1 0x60 PUSH2 0x121 PUSH2 0x559 JUMP JUMPDEST PUSH1 0x0 PUSH1 0x1 PUSH1 0x0 DUP7 DUP2 MSTORE PUSH1 0x20 ADD SWAP1 DUP2 MSTORE PUSH1 0x20 ADD PUSH1 0x0 KECCAK256 SWAP1 POP PUSH1 0x0 DUP2 PUSH1 0x0 ADD SLOAD SUB PUSH2 0x17F JUMPI PUSH1 0x40 MLOAD PUSH32 0x8C379A000000000000000000000000000000000000000000000000000000000 DUP2 MSTORE PUSH1 0x4 ADD PUSH2 0x176 SWAP1 PUSH2 0xB5E JUMP JUMPDEST PUSH1 0x40 MLOAD DUP1 SWAP2 SUB SWAP1 REVERT JUMPDEST DUP1 PUSH1 0x0 ADD SLOAD DUP2 PUSH1 0x1 ADD DUP3 PUSH1 0x2 ADD DUP2 DUP1 SLOAD PUSH2 0x198 SWAP1 PUSH2 0xBAD JUMP JUMPDEST DUP1 PUSH1 0x1F ADD PUSH1 0x20 DUP1 SWAP2 DIV MUL PUSH1 0x20 ADD PUSH1 0x40 MLOAD SWAP1 DUP2 ADD PUSH1 0x40 MSTORE DUP1 SWAP3 SWAP2 SWAP1 DUP2 DUP2 MSTORE PUSH1 0x20 ADD DUP3 DUP1 SLOAD PUSH2 0x1C4 SWAP1 PUSH2 0xBAD JUMP JUMPDEST DUP1 ISZERO PUSH2 0x211 JUMPI DUP1 PUSH1 0x1F LT PUSH2 0x1E6 JUMPI PUSH2 0x100 DUP1 DUP4 SLOAD DIV MUL DUP4 MSTORE SWAP2 PUSH1 0x20 ADD SWAP2 PUSH2 0x211 JUMP JUMPDEST DUP3 ADD SWAP2 SWAP1 PUSH1 0x0 MSTORE PUSH1 0x20 PUSH1 0x0 KECCAK256 SWAP1 JUMPDEST DUP2 SLOAD DUP2 MSTORE SWAP1 PUSH1 0x1 ADD SWAP1 PUSH1 0x20 ADD DUP1 DUP4 GT PUSH2 0x1F4 JUMPI DUP3 SWAP1 SUB PUSH1 0x1F AND DUP3 ADD SWAP2 JUMPDEST POP POP POP POP POP SWAP2 POP DUP1 PUSH1 0x3 DUP1 PUSH1 0x20 MUL PUSH1 0x40 MLOAD SWAP1 DUP2 ADD PUSH1 0x40 MSTORE DUP1 SWAP3 SWAP2 SWAP1 DUP3 PUSH1 0x3 DUP1 ISZERO PUSH2 0x250 JUMPI PUSH1 0x20 MUL DUP3 ADD SWAP2 JUMPDEST DUP2 SLOAD DUP2 MSTORE PUSH1 0x20 ADD SWAP1 PUSH1 0x1 ADD SWAP1 DUP1 DUP4 GT PUSH2 0x23C JUMPI JUMPDEST POP POP POP POP POP SWAP1 POP SWAP4 POP SWAP4 POP SWAP4 POP POP SWAP2 SWAP4 SWAP1 SWAP3 POP JUMP JUMPDEST PUSH1 0x0 DUP1 SLOAD SWAP1 PUSH2 0x100 EXP SWAP1 DIV PUSH20 0xFFFFFFFFFFFFFFFFFFFFFFFFFFFFFFFFFFFFFFFF AND PUSH20 0xFFFFFFFFFFFFFFFFFFFFFFFFFFFFFFFFFFFFFFFF AND CALLER PUSH20 0xFFFFFFFFFFFFFFFFFFFFFFFFFFFFFFFFFFFFFFFF AND EQ PUSH2 0x2F3 JUMPI PUSH1 0x40 MLOAD PUSH32 0x8C379A000000000000000000000000000000000000000000000000000000000 DUP2 MSTORE PUSH1 0x4 ADD PUSH2 0x2EA SWAP1 PUSH2 0xC50 JUMP JUMPDEST PUSH1 0x40 MLOAD DUP1 SWAP2 SUB SWAP1 REVERT JUMPDEST PUSH1 0x0 PUSH1 0x1 PUSH1 0x0 DUP4 DUP2 MSTORE PUSH1 0x20 ADD SWAP1 DUP2 MSTORE PUSH1 0x20 ADD PUSH1 0x0 KECCAK256 PUSH1 0x0 ADD SLOAD SUB PUSH2 0x34C JUMPI PUSH1 0x40 MLOAD PUSH32 0x8C379A000000000000000000000000000000000000000000000000000000000 DUP2 MSTORE PUSH1 0x4 ADD PUSH2 0x343 SWAP1 PUSH2 0xCBC JUMP JUMPDEST PUSH1 0x40 MLOAD DUP1 SWAP2 SUB SWAP1 REVERT JUMPDEST PUSH1 0x1 PUSH1 0x0 DUP3 DUP2 MSTORE PUSH1 0x20 ADD SWAP1 DUP2 MSTORE PUSH1 0x20 ADD PUSH1 0x0 KECCAK256 PUSH1 0x0 DUP1 DUP3 ADD PUSH1 0x0 SWAP1 SSTORE PUSH1 0x1 DUP3 ADD PUSH1 0x0 PUSH2 0x378 SWAP2 SWAP1 PUSH2 0x57B JUMP JUMPDEST PUSH1 0x2 DUP3 ADD PUSH1 0x0 PUSH2 0x388 SWAP2 SWAP1 PUSH2 0x5BB JUMP JUMPDEST POP POP POP JUMP JUMPDEST PUSH1 0x1 PUSH1 0x20 MSTORE DUP1 PUSH1 0x0 MSTORE PUSH1 0x40 PUSH1 0x0 KECCAK256 PUSH1 0x0 SWAP2 POP SWAP1 POP DUP1 PUSH1 0x0 ADD SLOAD SWAP1 DUP1 PUSH1 0x1 ADD DUP1 SLOAD PUSH2 0x3B6 SWAP1 PUSH2 0xBAD JUMP JUMPDEST DUP1 PUSH1 0x1F ADD PUSH1 0x20 DUP1 SWAP2 DIV MUL PUSH1 0x20 ADD PUSH1 0x40 MLOAD SWAP1 DUP2 ADD PUSH1 0x40 MSTORE DUP1 SWAP3 SWAP2 SWAP1 DUP2 DUP2 MSTORE PUSH1 0x20 ADD DUP3 DUP1 SLOAD PUSH2 0x3E2 SWAP1 PUSH2 0xBAD JUMP JUMPDEST DUP1 ISZERO PUSH2 0x42F JUMPI DUP1 PUSH1 0x1F LT PUSH2 0x404 JUMPI PUSH2 0x100 DUP1 DUP4 SLOAD DIV MUL DUP4 MSTORE SWAP2 PUSH1 0x20 ADD SWAP2 PUSH2 0x42F JUMP JUMPDEST DUP3 ADD SWAP2 SWAP1 PUSH1 0x0 MSTORE PUSH1 0x20 PUSH1 0x0 KECCAK256 SWAP1 JUMPDEST DUP2 SLOAD DUP2 MSTORE SWAP1 PUSH1 0x1 ADD SWAP1 PUSH1 0x20 ADD DUP1 DUP4 GT PUSH2 0x412 JUMPI DUP3 SWAP1 SUB PUSH1 0x1F AND DUP3 ADD SWAP2 JUMPDEST POP POP POP POP POP SWAP1 POP DUP3 JUMP JUMPDEST PUSH1 0x0 DUP1 SLOAD SWAP1 PUSH2 0x100 EXP SWAP1 DIV PUSH20 0xFFFFFFFFFFFFFFFFFFFFFFFFFFFFFFFFFFFFFFFF AND PUSH20 0xFFFFFFFFFFFFFFFFFFFFFFFFFFFFFFFFFFFFFFFF AND CALLER PUSH20 0xFFFFFFFFFFFFFFFFFFFFFFFFFFFFFFFFFFFFFFFF AND EQ PUSH2 0x4C7 JUMPI PUSH1 0x40 MLOAD PUSH32 0x8C379A000000000000000000000000000000000000000000000000000000000 DUP2 MSTORE PUSH1 0x4 ADD PUSH2 0x4BE SWAP1 PUSH2 0xC50 JUMP JUMPDEST PUSH1 0x40 MLOAD DUP1 SWAP2 SUB SWAP1 REVERT JUMPDEST PUSH1 0x40 MLOAD DUP1 PUSH1 0x60 ADD PUSH1 0x40 MSTORE DUP1 DUP5 DUP2 MSTORE PUSH1 0x20 ADD DUP4 DUP2 MSTORE PUSH1 0x20 ADD DUP3 DUP2 MSTORE POP PUSH1 0x1 PUSH1 0x0 DUP6 DUP2 MSTORE PUSH1 0x20 ADD SWAP1 DUP2 MSTORE PUSH1 0x20 ADD PUSH1 0x0 KECCAK256 PUSH1 0x0 DUP3 ADD MLOAD DUP2 PUSH1 0x0 ADD SSTORE PUSH1 0x20 DUP3 ADD MLOAD DUP2 PUSH1 0x1 ADD SWAP1 DUP2 PUSH2 0x514 SWAP2 SWAP1 PUSH2 0xE88 JUMP JUMPDEST POP PUSH1 0x40 DUP3 ADD MLOAD DUP2 PUSH1 0x2 ADD SWAP1 PUSH1 0x3 PUSH2 0x52C SWAP3 SWAP2 SWAP1 PUSH2 0x5D0 JUMP JUMPDEST POP SWAP1 POP POP POP POP POP JUMP JUMPDEST PUSH1 0x0 DUP1 SLOAD SWAP1 PUSH2 0x100 EXP SWAP1 DIV PUSH20 0xFFFFFFFFFFFFFFFFFFFFFFFFFFFFFFFFFFFFFFFF AND DUP2 JUMP JUMPDEST PUSH1 0x40 MLOAD DUP1 PUSH1 0x60 ADD PUSH1 0x40 MSTORE DUP1 PUSH1 0x3 SWAP1 PUSH1 0x20 DUP3 MUL DUP1 CALLDATASIZE DUP4 CALLDATACOPY DUP1 DUP3 ADD SWAP2 POP POP SWAP1 POP POP SWAP1 JUMP JUMPDEST POP DUP1 SLOAD PUSH2 0x587 SWAP1 PUSH2 0xBAD JUMP JUMPDEST PUSH1 0x0 DUP3 SSTORE DUP1 PUSH1 0x1F LT PUSH2 0x599 JUMPI POP PUSH2 0x5B8 JUMP JUMPDEST PUSH1 0x1F ADD PUSH1 0x20 SWAP1 DIV SWAP1 PUSH1 0x0 MSTORE PUSH1 0x20 PUSH1 0x0 KECCAK256 SWAP1 DUP2 ADD SWAP1 PUSH2 0x5B7 SWAP2 SWAP1 PUSH2 0x610 JUMP JUMPDEST JUMPDEST POP JUMP JUMPDEST POP PUSH1 0x0 DUP2 SSTORE PUSH1 0x1 ADD PUSH1 0x0 DUP2 SSTORE PUSH1 0x1 ADD PUSH1 0x0 SWAP1 SSTORE JUMP JUMPDEST DUP3 PUSH1 0x3 DUP2 ADD SWAP3 DUP3 ISZERO PUSH2 0x5FF JUMPI SWAP2 PUSH1 0x20 MUL DUP3 ADD JUMPDEST DUP3 DUP2 GT ISZERO PUSH2 0x5FE JUMPI DUP3 MLOAD DUP3 SSTORE SWAP2 PUSH1 0x20 ADD SWAP2 SWAP1 PUSH1 0x1 ADD SWAP1 PUSH2 0x5E3 JUMP JUMPDEST JUMPDEST POP SWAP1 POP PUSH2 0x60C SWAP2 SWAP1 PUSH2 0x610 JUMP JUMPDEST POP SWAP1 JUMP JUMPDEST JUMPDEST DUP1 DUP3 GT ISZERO PUSH2 0x629 JUMPI PUSH1 0x0 DUP2 PUSH1 0x0 SWAP1 SSTORE POP PUSH1 0x1 ADD PUSH2 0x611 JUMP JUMPDEST POP SWAP1 JUMP JUMPDEST PUSH1 0x0 PUSH1 0x40 MLOAD SWAP1 POP SWAP1 JUMP JUMPDEST PUSH1 0x0 DUP1 REVERT JUMPDEST PUSH1 0x0 DUP1 REVERT JUMPDEST PUSH1 0x0 DUP2 SWAP1 POP SWAP2 SWAP1 POP JUMP JUMPDEST PUSH2 0x654 DUP2 PUSH2 0x641 JUMP JUMPDEST DUP2 EQ PUSH2 0x65F JUMPI PUSH1 0x0 DUP1 REVERT JUMPDEST POP JUMP JUMPDEST PUSH1 0x0 DUP2 CALLDATALOAD SWAP1 POP PUSH2 0x671 DUP2 PUSH2 0x64B JUMP JUMPDEST SWAP3 SWAP2 POP POP JUMP JUMPDEST PUSH1 0x0 PUSH1 0x20 DUP3 DUP5 SUB SLT ISZERO PUSH2 0x68D JUMPI PUSH2 0x68C PUSH2 0x637 JUMP JUMPDEST JUMPDEST PUSH1 0x0 PUSH2 0x69B DUP5 DUP3 DUP6 ADD PUSH2 0x662 JUMP JUMPDEST SWAP2 POP POP SWAP3 SWAP2 POP POP JUMP JUMPDEST PUSH2 0x6AD DUP2 PUSH2 0x641 JUMP JUMPDEST DUP3 MSTORE POP POP JUMP JUMPDEST PUSH1 0x0 DUP2 MLOAD SWAP1 POP SWAP2 SWAP1 POP JUMP JUMPDEST PUSH1 0x0 DUP3 DUP3 MSTORE PUSH1 0x20 DUP3 ADD SWAP1 POP SWAP3 SWAP2 POP POP JUMP JUMPDEST PUSH1 0x0 JUMPDEST DUP4 DUP2 LT ISZERO PUSH2 0x6ED JUMPI DUP1 DUP3 ADD MLOAD DUP2 DUP5 ADD MSTORE PUSH1 0x20 DUP2 ADD SWAP1 POP PUSH2 0x6D2 JUMP JUMPDEST PUSH1 0x0 DUP5 DUP5 ADD MSTORE POP POP POP POP JUMP JUMPDEST PUSH1 0x0 PUSH1 0x1F NOT PUSH1 0x1F DUP4 ADD AND SWAP1 POP SWAP2 SWAP1 POP JUMP JUMPDEST PUSH1 0x0 PUSH2 0x715 DUP3 PUSH2 0x6B3 JUMP JUMPDEST PUSH2 0x71F DUP2 DUP6 PUSH2 0x6BE JUMP JUMPDEST SWAP4 POP PUSH2 0x72F DUP2 DUP6 PUSH1 0x20 DUP7 ADD PUSH2 0x6CF JUMP JUMPDEST PUSH2 0x738 DUP2 PUSH2 0x6F9 JUMP JUMPDEST DUP5 ADD SWAP2 POP POP SWAP3 SWAP2 POP POP JUMP JUMPDEST PUSH1 0x0 PUSH1 0x3 SWAP1 POP SWAP2 SWAP1 POP JUMP JUMPDEST PUSH1 0x0 DUP2 SWAP1 POP SWAP3 SWAP2 POP POP JUMP JUMPDEST PUSH1 0x0 DUP2 SWAP1 POP SWAP2 SWAP1 POP JUMP JUMPDEST PUSH2 0x76C DUP2 PUSH2 0x641 JUMP JUMPDEST DUP3 MSTORE POP POP JUMP JUMPDEST PUSH1 0x0 PUSH2 0x77E DUP4 DUP4 PUSH2 0x763 JUMP JUMPDEST PUSH1 0x20 DUP4 ADD SWAP1 POP SWAP3 SWAP2 POP POP JUMP JUMPDEST PUSH1 0x0 PUSH1 0x20 DUP3 ADD SWAP1 POP SWAP2 SWAP1 POP JUMP JUMPDEST PUSH2 0x7A0 DUP2 PUSH2 0x743 JUMP JUMPDEST PUSH2 0x7AA DUP2 DUP5 PUSH2 0x74E JUMP JUMPDEST SWAP3 POP PUSH2 0x7B5 DUP3 PUSH2 0x759 JUMP JUMPDEST DUP1 PUSH1 0x0 JUMPDEST DUP4 DUP2 LT ISZERO PUSH2 0x7E6 JUMPI DUP2 MLOAD PUSH2 0x7CD DUP8 DUP3 PUSH2 0x772 JUMP JUMPDEST SWAP7 POP PUSH2 0x7D8 DUP4 PUSH2 0x78A JUMP JUMPDEST SWAP3 POP POP PUSH1 0x1 DUP2 ADD SWAP1 POP PUSH2 0x7B9 JUMP JUMPDEST POP POP POP POP POP POP JUMP JUMPDEST PUSH1 0x0 PUSH1 0xA0 DUP3 ADD SWAP1 POP PUSH2 0x803 PUSH1 0x0 DUP4 ADD DUP7 PUSH2 0x6A4 JUMP JUMPDEST DUP2 DUP2 SUB PUSH1 0x20 DUP4 ADD MSTORE PUSH2 0x815 DUP2 DUP6 PUSH2 0x70A JUMP JUMPDEST SWAP1 POP PUSH2 0x824 PUSH1 0x40 DUP4 ADD DUP5 PUSH2 0x797 JUMP JUMPDEST SWAP5 SWAP4 POP POP POP POP JUMP JUMPDEST PUSH1 0x0 PUSH1 0x40 DUP3 ADD SWAP1 POP PUSH2 0x841 PUSH1 0x0 DUP4 ADD DUP6 PUSH2 0x6A4 JUMP JUMPDEST DUP2 DUP2 SUB PUSH1 0x20 DUP4 ADD MSTORE PUSH2 0x853 DUP2 DUP5 PUSH2 0x70A JUMP JUMPDEST SWAP1 POP SWAP4 SWAP3 POP POP POP JUMP JUMPDEST PUSH1 0x0 DUP1 REVERT JUMPDEST PUSH1 0x0 DUP1 REVERT JUMPDEST PUSH32 0x4E487B7100000000000000000000000000000000000000000000000000000000 PUSH1 0x0 MSTORE PUSH1 0x41 PUSH1 0x4 MSTORE PUSH1 0x24 PUSH1 0x0 REVERT JUMPDEST PUSH2 0x89E DUP3 PUSH2 0x6F9 JUMP JUMPDEST DUP2 ADD DUP2 DUP2 LT PUSH8 0xFFFFFFFFFFFFFFFF DUP3 GT OR ISZERO PUSH2 0x8BD JUMPI PUSH2 0x8BC PUSH2 0x866 JUMP JUMPDEST JUMPDEST DUP1 PUSH1 0x40 MSTORE POP POP POP JUMP JUMPDEST PUSH1 0x0 PUSH2 0x8D0 PUSH2 0x62D JUMP JUMPDEST SWAP1 POP PUSH2 0x8DC DUP3 DUP3 PUSH2 0x895 JUMP JUMPDEST SWAP2 SWAP1 POP JUMP JUMPDEST PUSH1 0x0 PUSH8 0xFFFFFFFFFFFFFFFF DUP3 GT ISZERO PUSH2 0x8FC JUMPI PUSH2 0x8FB PUSH2 0x866 JUMP JUMPDEST JUMPDEST PUSH2 0x905 DUP3 PUSH2 0x6F9 JUMP JUMPDEST SWAP1 POP PUSH1 0x20 DUP2 ADD SWAP1 POP SWAP2 SWAP1 POP JUMP JUMPDEST DUP3 DUP2 DUP4 CALLDATACOPY PUSH1 0x0 DUP4 DUP4 ADD MSTORE POP POP POP JUMP JUMPDEST PUSH1 0x0 PUSH2 0x934 PUSH2 0x92F DUP5 PUSH2 0x8E1 JUMP JUMPDEST PUSH2 0x8C6 JUMP JUMPDEST SWAP1 POP DUP3 DUP2 MSTORE PUSH1 0x20 DUP2 ADD DUP5 DUP5 DUP5 ADD GT ISZERO PUSH2 0x950 JUMPI PUSH2 0x94F PUSH2 0x861 JUMP JUMPDEST JUMPDEST PUSH2 0x95B DUP5 DUP3 DUP6 PUSH2 0x912 JUMP JUMPDEST POP SWAP4 SWAP3 POP POP POP JUMP JUMPDEST PUSH1 0x0 DUP3 PUSH1 0x1F DUP4 ADD SLT PUSH2 0x978 JUMPI PUSH2 0x977 PUSH2 0x85C JUMP JUMPDEST JUMPDEST DUP2 CALLDATALOAD PUSH2 0x988 DUP5 DUP3 PUSH1 0x20 DUP7 ADD PUSH2 0x921 JUMP JUMPDEST SWAP2 POP POP SWAP3 SWAP2 POP POP JUMP JUMPDEST PUSH1 0x0 PUSH8 0xFFFFFFFFFFFFFFFF DUP3 GT ISZERO PUSH2 0x9AC JUMPI PUSH2 0x9AB PUSH2 0x866 JUMP JUMPDEST JUMPDEST PUSH1 0x20 DUP3 MUL SWAP1 POP SWAP2 SWAP1 POP JUMP JUMPDEST PUSH1 0x0 DUP1 REVERT JUMPDEST PUSH1 0x0 PUSH2 0x9CF PUSH2 0x9CA DUP5 PUSH2 0x991 JUMP JUMPDEST PUSH2 0x8C6 JUMP JUMPDEST SWAP1 POP DUP1 PUSH1 0x20 DUP5 MUL DUP4 ADD DUP6 DUP2 GT ISZERO PUSH2 0x9E9 JUMPI PUSH2 0x9E8 PUSH2 0x9B7 JUMP JUMPDEST JUMPDEST DUP4 JUMPDEST DUP2 DUP2 LT ISZERO PUSH2 0xA12 JUMPI DUP1 PUSH2 0x9FE DUP9 DUP3 PUSH2 0x662 JUMP JUMPDEST DUP5 MSTORE PUSH1 0x20 DUP5 ADD SWAP4 POP POP PUSH1 0x20 DUP2 ADD SWAP1 POP PUSH2 0x9EB JUMP JUMPDEST POP POP POP SWAP4 SWAP3 POP POP POP JUMP JUMPDEST PUSH1 0x0 DUP3 PUSH1 0x1F DUP4 ADD SLT PUSH2 0xA31 JUMPI PUSH2 0xA30 PUSH2 0x85C JUMP JUMPDEST JUMPDEST PUSH1 0x3 PUSH2 0xA3E DUP5 DUP3 DUP6 PUSH2 0x9BC JUMP JUMPDEST SWAP2 POP POP SWAP3 SWAP2 POP POP JUMP JUMPDEST PUSH1 0x0 DUP1 PUSH1 0x0 PUSH1 0xA0 DUP5 DUP7 SUB SLT ISZERO PUSH2 0xA60 JUMPI PUSH2 0xA5F PUSH2 0x637 JUMP JUMPDEST JUMPDEST PUSH1 0x0 PUSH2 0xA6E DUP7 DUP3 DUP8 ADD PUSH2 0x662 JUMP JUMPDEST SWAP4 POP POP PUSH1 0x20 DUP5 ADD CALLDATALOAD PUSH8 0xFFFFFFFFFFFFFFFF DUP2 GT ISZERO PUSH2 0xA8F JUMPI PUSH2 0xA8E PUSH2 0x63C JUMP JUMPDEST JUMPDEST PUSH2 0xA9B DUP7 DUP3 DUP8 ADD PUSH2 0x963 JUMP JUMPDEST SWAP3 POP POP PUSH1 0x40 PUSH2 0xAAC DUP7 DUP3 DUP8 ADD PUSH2 0xA1C JUMP JUMPDEST SWAP2 POP POP SWAP3 POP SWAP3 POP SWAP3 JUMP JUMPDEST PUSH1 0x0 PUSH20 0xFFFFFFFFFFFFFFFFFFFFFFFFFFFFFFFFFFFFFFFF DUP3 AND SWAP1 POP SWAP2 SWAP1 POP JUMP JUMPDEST PUSH1 0x0 PUSH2 0xAE1 DUP3 PUSH2 0xAB6 JUMP JUMPDEST SWAP1 POP SWAP2 SWAP1 POP JUMP JUMPDEST PUSH2 0xAF1 DUP2 PUSH2 0xAD6 JUMP JUMPDEST DUP3 MSTORE POP POP JUMP JUMPDEST PUSH1 0x0 PUSH1 0x20 DUP3 ADD SWAP1 POP PUSH2 0xB0C PUSH1 0x0 DUP4 ADD DUP5 PUSH2 0xAE8 JUMP JUMPDEST SWAP3 SWAP2 POP POP JUMP JUMPDEST PUSH32 0x5265636F726420646F6573206E6F742065786974730000000000000000000000 PUSH1 0x0 DUP3 ADD MSTORE POP JUMP JUMPDEST PUSH1 0x0 PUSH2 0xB48 PUSH1 0x15 DUP4 PUSH2 0x6BE JUMP JUMPDEST SWAP2 POP PUSH2 0xB53 DUP3 PUSH2 0xB12 JUMP JUMPDEST PUSH1 0x20 DUP3 ADD SWAP1 POP SWAP2 SWAP1 POP JUMP JUMPDEST PUSH1 0x0 PUSH1 0x20 DUP3 ADD SWAP1 POP DUP2 DUP2 SUB PUSH1 0x0 DUP4 ADD MSTORE PUSH2 0xB77 DUP2 PUSH2 0xB3B JUMP JUMPDEST SWAP1 POP SWAP2 SWAP1 POP JUMP JUMPDEST PUSH32 0x4E487B7100000000000000000000000000000000000000000000000000000000 PUSH1 0x0 MSTORE PUSH1 0x22 PUSH1 0x4 MSTORE PUSH1 0x24 PUSH1 0x0 REVERT JUMPDEST PUSH1 0x0 PUSH1 0x2 DUP3 DIV SWAP1 POP PUSH1 0x1 DUP3 AND DUP1 PUSH2 0xBC5 JUMPI PUSH1 0x7F DUP3 AND SWAP2 POP JUMPDEST PUSH1 0x20 DUP3 LT DUP2 SUB PUSH2 0xBD8 JUMPI PUSH2 0xBD7 PUSH2 0xB7E JUMP JUMPDEST JUMPDEST POP SWAP2 SWAP1 POP JUMP JUMPDEST PUSH32 0x4F6E6C792074686520746561636865722063616E20706572666F726D20746869 PUSH1 0x0 DUP3 ADD MSTORE PUSH32 0x73206F7065726174696F6E000000000000000000000000000000000000000000 PUSH1 0x20 DUP3 ADD MSTORE POP JUMP JUMPDEST PUSH1 0x0 PUSH2 0xC3A PUSH1 0x2B DUP4 PUSH2 0x6BE JUMP JUMPDEST SWAP2 POP PUSH2 0xC45 DUP3 PUSH2 0xBDE JUMP JUMPDEST PUSH1 0x40 DUP3 ADD SWAP1 POP SWAP2 SWAP1 POP JUMP JUMPDEST PUSH1 0x0 PUSH1 0x20 DUP3 ADD SWAP1 POP DUP2 DUP2 SUB PUSH1 0x0 DUP4 ADD MSTORE PUSH2 0xC69 DUP2 PUSH2 0xC2D JUMP JUMPDEST SWAP1 POP SWAP2 SWAP1 POP JUMP JUMPDEST PUSH32 0x5265636F726420646F6573206E6F742065786973740000000000000000000000 PUSH1 0x0 DUP3 ADD MSTORE POP JUMP JUMPDEST PUSH1 0x0 PUSH2 0xCA6 PUSH1 0x15 DUP4 PUSH2 0x6BE JUMP JUMPDEST SWAP2 POP PUSH2 0xCB1 DUP3 PUSH2 0xC70 JUMP JUMPDEST PUSH1 0x20 DUP3 ADD SWAP1 POP SWAP2 SWAP1 POP JUMP JUMPDEST PUSH1 0x0 PUSH1 0x20 DUP3 ADD SWAP1 POP DUP2 DUP2 SUB PUSH1 0x0 DUP4 ADD MSTORE PUSH2 0xCD5 DUP2 PUSH2 0xC99 JUMP JUMPDEST SWAP1 POP SWAP2 SWAP1 POP JUMP JUMPDEST PUSH1 0x0 DUP2 SWAP1 POP DUP2 PUSH1 0x0 MSTORE PUSH1 0x20 PUSH1 0x0 KECCAK256 SWAP1 POP SWAP2 SWAP1 POP JUMP JUMPDEST PUSH1 0x0 PUSH1 0x20 PUSH1 0x1F DUP4 ADD DIV SWAP1 POP SWAP2 SWAP1 POP JUMP JUMPDEST PUSH1 0x0 DUP3 DUP3 SHL SWAP1 POP SWAP3 SWAP2 POP POP JUMP JUMPDEST PUSH1 0x0 PUSH1 0x8 DUP4 MUL PUSH2 0xD3E PUSH32 0xFFFFFFFFFFFFFFFFFFFFFFFFFFFFFFFFFFFFFFFFFFFFFFFFFFFFFFFFFFFFFFFF DUP3 PUSH2 0xD01 JUMP JUMPDEST PUSH2 0xD48 DUP7 DUP4 PUSH2 0xD01 JUMP JUMPDEST SWAP6 POP DUP1 NOT DUP5 AND SWAP4 POP DUP1 DUP7 AND DUP5 OR SWAP3 POP POP POP SWAP4 SWAP3 POP POP POP JUMP JUMPDEST PUSH1 0x0 DUP2 SWAP1 POP SWAP2 SWAP1 POP JUMP JUMPDEST PUSH1 0x0 PUSH2 0xD85 PUSH2 0xD80 PUSH2 0xD7B DUP5 PUSH2 0x641 JUMP JUMPDEST PUSH2 0xD60 JUMP JUMPDEST PUSH2 0x641 JUMP JUMPDEST SWAP1 POP SWAP2 SWAP1 POP JUMP JUMPDEST PUSH1 0x0 DUP2 SWAP1 POP SWAP2 SWAP1 POP JUMP JUMPDEST PUSH2 0xD9F DUP4 PUSH2 0xD6A JUMP JUMPDEST PUSH2 0xDB3 PUSH2 0xDAB DUP3 PUSH2 0xD8C JUMP JUMPDEST DUP5 DUP5 SLOAD PUSH2 0xD0E JUMP JUMPDEST DUP3 SSTORE POP POP POP POP JUMP JUMPDEST PUSH1 0x0 SWAP1 JUMP JUMPDEST PUSH2 0xDC8 PUSH2 0xDBB JUMP JUMPDEST PUSH2 0xDD3 DUP2 DUP5 DUP5 PUSH2 0xD96 JUMP JUMPDEST POP POP POP JUMP JUMPDEST JUMPDEST DUP2 DUP2 LT ISZERO PUSH2 0xDF7 JUMPI PUSH2 0xDEC PUSH1 0x0 DUP3 PUSH2 0xDC0 JUMP JUMPDEST PUSH1 0x1 DUP2 ADD SWAP1 POP PUSH2 0xDD9 JUMP JUMPDEST POP POP JUMP JUMPDEST PUSH1 0x1F DUP3 GT ISZERO PUSH2 0xE3C JUMPI PUSH2 0xE0D DUP2 PUSH2 0xCDC JUMP JUMPDEST PUSH2 0xE16 DUP5 PUSH2 0xCF1 JUMP JUMPDEST DUP2 ADD PUSH1 0x20 DUP6 LT ISZERO PUSH2 0xE25 JUMPI DUP2 SWAP1 POP JUMPDEST PUSH2 0xE39 PUSH2 0xE31 DUP6 PUSH2 0xCF1 JUMP JUMPDEST DUP4 ADD DUP3 PUSH2 0xDD8 JUMP JUMPDEST POP POP JUMPDEST POP POP POP JUMP JUMPDEST PUSH1 0x0 DUP3 DUP3 SHR SWAP1 POP SWAP3 SWAP2 POP POP JUMP JUMPDEST PUSH1 0x0 PUSH2 0xE5F PUSH1 0x0 NOT DUP5 PUSH1 0x8 MUL PUSH2 0xE41 JUMP JUMPDEST NOT DUP1 DUP4 AND SWAP2 POP POP SWAP3 SWAP2 POP POP JUMP JUMPDEST PUSH1 0x0 PUSH2 0xE78 DUP4 DUP4 PUSH2 0xE4E JUMP JUMPDEST SWAP2 POP DUP3 PUSH1 0x2 MUL DUP3 OR SWAP1 POP SWAP3 SWAP2 POP POP JUMP JUMPDEST PUSH2 0xE91 DUP3 PUSH2 0x6B3 JUMP JUMPDEST PUSH8 0xFFFFFFFFFFFFFFFF DUP2 GT ISZERO PUSH2 0xEAA JUMPI PUSH2 0xEA9 PUSH2 0x866 JUMP JUMPDEST JUMPDEST PUSH2 0xEB4 DUP3 SLOAD PUSH2 0xBAD JUMP JUMPDEST PUSH2 0xEBF DUP3 DUP3 DUP6 PUSH2 0xDFB JUMP JUMPDEST PUSH1 0x0 PUSH1 0x20 SWAP1 POP PUSH1 0x1F DUP4 GT PUSH1 0x1 DUP2 EQ PUSH2 0xEF2 JUMPI PUSH1 0x0 DUP5 ISZERO PUSH2 0xEE0 JUMPI DUP3 DUP8 ADD MLOAD SWAP1 POP JUMPDEST PUSH2 0xEEA DUP6 DUP3 PUSH2 0xE6C JUMP JUMPDEST DUP7 SSTORE POP PUSH2 0xF52 JUMP JUMPDEST PUSH1 0x1F NOT DUP5 AND PUSH2 0xF00 DUP7 PUSH2 0xCDC JUMP JUMPDEST PUSH1 0x0 JUMPDEST DUP3 DUP2 LT ISZERO PUSH2 0xF28 JUMPI DUP5 DUP10 ADD MLOAD DUP3 SSTORE PUSH1 0x1 DUP3 ADD SWAP2 POP PUSH1 0x20 DUP6 ADD SWAP5 POP PUSH1 0x20 DUP2 ADD SWAP1 POP PUSH2 0xF03 JUMP JUMPDEST DUP7 DUP4 LT ISZERO PUSH2 0xF45 JUMPI DUP5 DUP10 ADD MLOAD PUSH2 0xF41 PUSH1 0x1F DUP10 AND DUP3 PUSH2 0xE4E JUMP JUMPDEST DUP4 SSTORE POP JUMPDEST PUSH1 0x1 PUSH1 0x2 DUP9 MUL ADD DUP9 SSTORE POP POP POP JUMPDEST POP POP POP POP POP POP JUMP INVALID LOG2 PUSH5 0x6970667358 0x22 SLT KECCAK256 PUSH27 0x96205593F084236687301F3B08145E11B7ECF5F3276C5A9D7AAA23 JUMP 0xE6 MUL LT PUSH5 0x736F6C6343 STOP ADDMOD SLT STOP CALLER "
				},
				"gasEstimates": {
					"creation": {
						"codeDepositCost": "796800",
						"executionCost": "25097",
						"totalCost": "821897"
					},
					"external": {
						"addRecord(uint256,string,uint256[3])": "infinite",
						"deleteRecord(uint256)": "infinite",
						"getRecord(uint256)": "infinite",
						"students(uint256)": "infinite",
						"teacher()": "2577"
					}
				},
				"methodIdentifiers": {
					"addRecord(uint256,string,uint256[3])": "afb869ed",
					"deleteRecord(uint256)": "061f9811",
					"getRecord(uint256)": "03e9e609",
					"students(uint256)": "06ead22e",
					"teacher()": "b46bff89"
				}
			},
			"storageLayout": {
				"storage": [
					{
						"astId": 3,
						"contract": "contracts/1StucentRecords.sol:StudentRecord",
						"label": "teacher",
						"offset": 0,
						"slot": "0",
						"type": "t_address"
					},
					{
						"astId": 17,
						"contract": "contracts/1StucentRecords.sol:StudentRecord",
						"label": "students",
						"offset": 0,
						"slot": "1",
						"type": "t_mapping(t_uint256,t_struct(Student)12_storage)"
					}
				],
				"types": {
					"t_address": {
						"encoding": "inplace",
						"label": "address",
						"numberOfBytes": "20"
					},
					"t_array(t_uint256)3_storage": {
						"base": "t_uint256",
						"encoding": "inplace",
						"label": "uint256[3]",
						"numberOfBytes": "96"
					},
					"t_mapping(t_uint256,t_struct(Student)12_storage)": {
						"encoding": "mapping",
						"key": "t_uint256",
						"label": "mapping(uint256 => struct StudentRecord.Student)",
						"numberOfBytes": "32",
						"value": "t_struct(Student)12_storage"
					},
					"t_string_storage": {
						"encoding": "bytes",
						"label": "string",
						"numberOfBytes": "32"
					},
					"t_struct(Student)12_storage": {
						"encoding": "inplace",
						"label": "struct StudentRecord.Student",
						"members": [
							{
								"astId": 5,
								"contract": "contracts/1StucentRecords.sol:StudentRecord",
								"label": "roll",
								"offset": 0,
								"slot": "0",
								"type": "t_uint256"
							},
							{
								"astId": 7,
								"contract": "contracts/1StucentRecords.sol:StudentRecord",
								"label": "name",
								"offset": 0,
								"slot": "1",
								"type": "t_string_storage"
							},
							{
								"astId": 11,
								"contract": "contracts/1StucentRecords.sol:StudentRecord",
								"label": "marks",
								"offset": 0,
								"slot": "2",
								"type": "t_array(t_uint256)3_storage"
							}
						],
						"numberOfBytes": "160"
					},
					"t_uint256": {
						"encoding": "inplace",
						"label": "uint256",
						"numberOfBytes": "32"
					}
				}
			},
			"userdoc": {
				"kind": "user",
				"methods": {},
				"version": 1
			}
		}
	}
}